{
  "_format": "hh3-artifact-1",
  "contractName": "Animalitos",
  "sourceName": "contracts/animalitos.sol",
  "abi": [
    {
      "inputs": [
        {
          "internalType": "address",
          "name": "_usdtAddress",
          "type": "address"
        }
      ],
      "stateMutability": "nonpayable",
      "type": "constructor"
    },
    {
      "inputs": [
        {
          "internalType": "uint256",
          "name": "amount",
          "type": "uint256"
        },
        {
          "internalType": "uint256",
          "name": "limit",
          "type": "uint256"
        }
      ],
      "name": "MaxBetPerAnimalPerRoundExceeded",
      "type": "error"
    },
    {
      "inputs": [
        {
          "internalType": "uint256",
          "name": "amount",
          "type": "uint256"
        },
        {
          "internalType": "uint256",
          "name": "limit",
          "type": "uint256"
        }
      ],
      "name": "MaxBetPerUserPerAnimalExceeded",
      "type": "error"
    },
    {
      "anonymous": false,
      "inputs": [
        {
          "indexed": true,
          "internalType": "address",
          "name": "user",
          "type": "address"
        },
        {
          "indexed": true,
          "internalType": "uint8",
          "name": "animal",
          "type": "uint8"
        },
        {
          "indexed": false,
          "internalType": "uint256",
          "name": "amount",
          "type": "uint256"
        }
      ],
      "name": "betPlaced",
      "type": "event"
    },
    {
      "anonymous": false,
      "inputs": [
        {
          "indexed": true,
          "internalType": "address",
          "name": "user",
          "type": "address"
        },
        {
          "indexed": false,
          "internalType": "uint256",
          "name": "amount",
          "type": "uint256"
        }
      ],
      "name": "prizeClaimed",
      "type": "event"
    },
    {
      "anonymous": false,
      "inputs": [
        {
          "indexed": true,
          "internalType": "uint256",
          "name": "roundNumber",
          "type": "uint256"
        },
        {
          "indexed": true,
          "internalType": "uint8",
          "name": "winner",
          "type": "uint8"
        }
      ],
      "name": "roundEnded",
      "type": "event"
    },
    {
      "anonymous": false,
      "inputs": [
        {
          "indexed": true,
          "internalType": "uint256",
          "name": "roundNumber",
          "type": "uint256"
        },
        {
          "indexed": false,
          "internalType": "uint16",
          "name": "duration",
          "type": "uint16"
        }
      ],
      "name": "roundStarted",
      "type": "event"
    },
    {
      "anonymous": false,
      "inputs": [
        {
          "indexed": true,
          "internalType": "uint256",
          "name": "roundNumber",
          "type": "uint256"
        },
        {
          "indexed": false,
          "internalType": "uint256",
          "name": "jackpotValue",
          "type": "uint256"
        }
      ],
      "name": "specialRoundStarted",
      "type": "event"
    },
    {
      "inputs": [],
      "name": "HOUSE_FEE_PERCENT",
      "outputs": [
        {
          "internalType": "uint8",
          "name": "",
          "type": "uint8"
        }
      ],
      "stateMutability": "view",
      "type": "function"
    },
    {
      "inputs": [],
      "name": "JACKPOT_PERCENT",
      "outputs": [
        {
          "internalType": "uint8",
          "name": "",
          "type": "uint8"
        }
      ],
      "stateMutability": "view",
      "type": "function"
    },
    {
      "inputs": [],
      "name": "MAX_ANIMAL_BET_TOTAL",
      "outputs": [
        {
          "internalType": "uint256",
          "name": "",
          "type": "uint256"
        }
      ],
      "stateMutability": "view",
      "type": "function"
    },
    {
      "inputs": [],
      "name": "MAX_ANIMAL_BET_USER",
      "outputs": [
        {
          "internalType": "uint256",
          "name": "",
          "type": "uint256"
        }
      ],
      "stateMutability": "view",
      "type": "function"
    },
    {
      "inputs": [],
      "name": "MIN_JACKPOT",
      "outputs": [
        {
          "internalType": "uint256",
          "name": "",
          "type": "uint256"
        }
      ],
      "stateMutability": "view",
      "type": "function"
    },
    {
      "inputs": [
        {
          "internalType": "uint256",
          "name": "",
          "type": "uint256"
        },
        {
          "internalType": "uint8",
          "name": "",
          "type": "uint8"
        },
        {
          "internalType": "address",
          "name": "",
          "type": "address"
        }
      ],
      "name": "bets",
      "outputs": [
        {
          "internalType": "uint256",
          "name": "",
          "type": "uint256"
        }
      ],
      "stateMutability": "view",
      "type": "function"
    },
    {
      "inputs": [
        {
          "internalType": "uint256",
          "name": "roundNumber",
          "type": "uint256"
        }
      ],
      "name": "claimPrize",
      "outputs": [],
      "stateMutability": "nonpayable",
      "type": "function"
    },
    {
      "inputs": [
        {
          "internalType": "uint256",
          "name": "",
          "type": "uint256"
        },
        {
          "internalType": "address",
          "name": "",
          "type": "address"
        }
      ],
      "name": "claimed",
      "outputs": [
        {
          "internalType": "bool",
          "name": "",
          "type": "bool"
        }
      ],
      "stateMutability": "view",
      "type": "function"
    },
    {
      "inputs": [],
      "name": "currentPrizePool",
      "outputs": [
        {
          "internalType": "uint256",
          "name": "",
          "type": "uint256"
        }
      ],
      "stateMutability": "view",
      "type": "function"
    },
    {
      "inputs": [],
      "name": "currentRound",
      "outputs": [
        {
          "internalType": "uint256",
          "name": "",
          "type": "uint256"
        }
      ],
      "stateMutability": "view",
      "type": "function"
    },
    {
      "inputs": [],
      "name": "endRound",
      "outputs": [],
      "stateMutability": "nonpayable",
      "type": "function"
    },
    {
      "inputs": [
        {
          "internalType": "uint256",
          "name": "roundNumber",
          "type": "uint256"
        }
      ],
      "name": "getRemainingPrize",
      "outputs": [
        {
          "internalType": "uint256",
          "name": "",
          "type": "uint256"
        }
      ],
      "stateMutability": "view",
      "type": "function"
    },
    {
      "inputs": [
        {
          "internalType": "uint256",
          "name": "roundNumber",
          "type": "uint256"
        },
        {
          "internalType": "address",
          "name": "user",
          "type": "address"
        }
      ],
      "name": "getUserBets",
      "outputs": [
        {
          "internalType": "uint256[]",
          "name": "",
          "type": "uint256[]"
        }
      ],
      "stateMutability": "view",
      "type": "function"
    },
    {
      "inputs": [],
      "name": "houseBalance",
      "outputs": [
        {
          "internalType": "uint256",
          "name": "",
          "type": "uint256"
        }
      ],
      "stateMutability": "view",
      "type": "function"
    },
    {
      "inputs": [],
      "name": "jackpotPool",
      "outputs": [
        {
          "internalType": "uint256",
          "name": "",
          "type": "uint256"
        }
      ],
      "stateMutability": "view",
      "type": "function"
    },
    {
      "inputs": [],
      "name": "owner",
      "outputs": [
        {
          "internalType": "address",
          "name": "",
          "type": "address"
        }
      ],
      "stateMutability": "view",
      "type": "function"
    },
    {
      "inputs": [
        {
          "internalType": "uint8",
          "name": "animal",
          "type": "uint8"
        },
        {
          "internalType": "uint256",
          "name": "amount",
          "type": "uint256"
        }
      ],
      "name": "placeBet",
      "outputs": [],
      "stateMutability": "nonpayable",
      "type": "function"
    },
    {
      "inputs": [],
      "name": "roundActive",
      "outputs": [
        {
          "internalType": "bool",
          "name": "",
          "type": "bool"
        }
      ],
      "stateMutability": "view",
      "type": "function"
    },
    {
      "inputs": [
        {
          "internalType": "uint256",
          "name": "",
          "type": "uint256"
        }
      ],
      "name": "rounds",
      "outputs": [
        {
          "internalType": "uint256",
          "name": "totalPool",
          "type": "uint256"
        },
        {
          "internalType": "uint8",
          "name": "winningAnimal",
          "type": "uint8"
        },
        {
          "internalType": "bool",
          "name": "finished",
          "type": "bool"
        },
        {
          "internalType": "uint256",
          "name": "roundStartTime",
          "type": "uint256"
        },
        {
          "internalType": "uint256",
          "name": "roundEndTime",
          "type": "uint256"
        },
        {
          "internalType": "bool",
          "name": "isSpecial",
          "type": "bool"
        },
        {
          "internalType": "uint256",
          "name": "claimablePrize",
          "type": "uint256"
        },
        {
          "internalType": "uint256",
          "name": "remainingPrize",
          "type": "uint256"
        }
      ],
      "stateMutability": "view",
      "type": "function"
    },
    {
      "inputs": [],
      "name": "specialRoundProbability",
      "outputs": [
        {
          "internalType": "uint8",
          "name": "",
          "type": "uint8"
        }
      ],
      "stateMutability": "view",
      "type": "function"
    },
    {
      "inputs": [
        {
          "internalType": "uint16",
          "name": "duration",
          "type": "uint16"
        }
      ],
      "name": "startRound",
      "outputs": [],
      "stateMutability": "nonpayable",
      "type": "function"
    },
    {
      "inputs": [
        {
          "internalType": "uint256",
          "name": "",
          "type": "uint256"
        },
        {
          "internalType": "uint8",
          "name": "",
          "type": "uint8"
        }
      ],
      "name": "totalAnimalBets",
      "outputs": [
        {
          "internalType": "uint256",
          "name": "",
          "type": "uint256"
        }
      ],
      "stateMutability": "view",
      "type": "function"
    },
    {
      "inputs": [],
      "name": "totalAnimals",
      "outputs": [
        {
          "internalType": "uint8",
          "name": "",
          "type": "uint8"
        }
      ],
      "stateMutability": "pure",
      "type": "function"
    },
    {
      "inputs": [],
      "name": "usdt",
      "outputs": [
        {
          "internalType": "contract IERC20",
          "name": "",
          "type": "address"
        }
      ],
      "stateMutability": "view",
      "type": "function"
    },
    {
      "inputs": [],
      "name": "withdrawHouseBalance",
      "outputs": [],
      "stateMutability": "nonpayable",
      "type": "function"
    }
  ],
  "bytecode": "0x60806040525f805460ff60a01b191681556001556002805460ff191690553480156027575f5ffd5b506040516117c83803806117c88339810160408190526044916075565b5f8054336001600160a01b031991821617909155600680549091166001600160a01b039290921691909117905560a0565b5f602082840312156084575f5ffd5b81516001600160a01b03811681146099575f5ffd5b9392505050565b61171b806100ad5f395ff3fe608060405234801561000f575f5ffd5b506004361061016d575f3560e01c80636c6daa90116100d9578063b05b32ae11610093578063d70981541161006e578063d7098154146103ba578063dcb3b30e146103cd578063ef0a7c2d146103e0578063fa744dd3146103eb575f5ffd5b8063b05b32ae1461037f578063b95328ff14610388578063c7bafdcb146103b2575f5ffd5b80636c6daa9014610287578063749aa2d9146102b75780638a19c8bc146102bf5780638c65c81f146102c85780638da5cb5b14610360578063ade5c0bc14610372575f5ffd5b80632f48ab7d1161012a5780632f48ab7d1461022f5780633dc295fa1461025a5780635537be7f1461026557806367084eb31461026d578063675f8aea146102765780636a0ec9251461027f575f5ffd5b8063027471b01461017157806302cab95a1461019957806302f6b274146101ae578063117692be146101c6578063120aa877146101e85780631407a80a14610215575b5f5ffd5b5f5461018490600160a01b900460ff1681565b60405190151581526020015b60405180910390f35b6101ac6101a73660046113e3565b61040b565b005b6101b8624c4b4081565b604051908152602001610190565b6101b86101d436600461140b565b5f9081526007602052604090206006015490565b6101846101f636600461143d565b600a60209081525f928352604080842090915290825290205460ff1681565b61021d600581565b60405160ff9091168152602001610190565b600654610242906001600160a01b031681565b6040516001600160a01b039091168152602001610190565b6101b8631dcd650081565b61021d600a81565b6101b860035481565b6101b860055481565b61021d61068a565b6101b8610295366004611477565b600960209081525f938452604080852082529284528284209052825290205481565b6101ac61069c565b6101b860015481565b61031b6102d636600461140b565b60076020525f90815260409020805460018201546002830154600384015460048501546005860154600690960154949560ff8086169661010090960481169592169188565b6040805198895260ff90971660208901529415159587019590955260608601929092526080850152151560a084015260c083019190915260e082015261010001610190565b5f54610242906001600160a01b031681565b60025461021d9060ff1681565b6101b860045481565b6101b86103963660046114b0565b600860209081525f928352604080842090915290825290205481565b6101ac610a2c565b6101ac6103c836600461140b565b610b44565b6101ac6103db3660046114d1565b610e6b565b6101b86305f5e10081565b6103fe6103f936600461143d565b61125c565b60405161019091906114f9565b5f54600160a01b900460ff16156104645760405162461bcd60e51b8152602060048201526018602482015277151a195c99481a5cc8185b881858dd1a5d99481c9bdd5b9960421b60448201526064015b60405180910390fd5b5f546001600160a01b0316331461048d5760405162461bcd60e51b815260040161045b9061153b565b60028161ffff1610156104f15760405162461bcd60e51b815260206004820152602660248201527f526f756e6473206d757374206265206174206c656173742032206d696e75746560448201526573206c6f6e6760d01b606482015260840161045b565b5f805460ff60a01b1916600160a01b178155600180549161051183611590565b90915550506001545f9081526007602052604090204260029091015561053881603c6115a8565b6001545f9081526007602052604090206002015461055a9161ffff16906115cc565b6001545f90815260076020526040902060030155600454631dcd650011801590610592575060025460ff1661058d611324565b60ff16105b1561063257600180545f90815260076020908152604091829020600401805460ff1916841790559154905161ffff8416815290917f8a9736bf4f26e2df36f67e7afc1c7976dd2b6331b3a073385f8fc93d427f2985910160405180910390a26001547f9d2844be46f0c0b9aad486f910ede193ae677066c380844aa8a4d605438ea35860045460405161062791815260200190565b60405180910390a250565b600180545f90815260076020908152604091829020600401805460ff191690559154905161ffff8416815290917f8a9736bf4f26e2df36f67e7afc1c7976dd2b6331b3a073385f8fc93d427f29859101610627565b50565b5f610697601f60016115f3565b905090565b5f54600160a01b900460ff1615156001146106f95760405162461bcd60e51b815260206004820152601c60248201527f5468657265206973206e6f7420616e2061637469766520726f756e6400000000604482015260640161045b565b6001545f9081526007602052604090206003015442116107655760405162461bcd60e51b815260206004820152602160248201527f54686520726f756e6427732074696d6520686173206e6f742066696e697368656044820152601960fa1b606482015260840161045b565b5f805460ff60a01b1916815560018054825260076020526040822001805461ff001916610100179055610796611379565b601f8111156107a7576107a76115df565b600180545f908152600760205260408082208301805460ff191660ff8616179055915481529081205491925060646107e0600a8461160c565b6107ea9190611637565b90505f60646107fa60058561160c565b6108049190611637565b90505f81610812848661164a565b61081c919061164a565b6001545f90815260086020908152604080832060ff8a168452909152902054909150801561091c578360035f82825461085591906115cc565b925050819055508260045f82825461086d91906115cc565b925050819055508160055f82825461088591906115cc565b9091555050600180545f9081526007602052604080822060050185905591548152206004015460ff16156108fc576004546001545f90815260076020526040812060050180549091906108d99084906115cc565b9091555050600454600580545f906108f29084906115cc565b90915550505f6004555b6001545f9081526007602052604090206005810154600690910155610972565b610927600283611637565b61093190856115cc565b60035f82825461094191906115cc565b909155506109529050600283611637565b61095c90846115cc565b60045f82825461096c91906115cc565b90915550505b631dcd65006004541015801561098f5750600254606460ff909116105b156109c95760028054600591905f906109ac90849060ff166115f3565b92506101000a81548160ff021916908360ff1602179055506109e2565b631dcd650060045410156109e2576002805460ff191690555b600180545f8181526007602052604080822090930154925160ff909316927ff9b7ea5b552f55fcaab784220365de598bdcf29a91d1336e21811dca8e5efe179190a3505050505050565b5f546001600160a01b03163314610a555760405162461bcd60e51b815260040161045b9061153b565b5f54600160a01b900460ff1615610aa95760405162461bcd60e51b8152602060048201526018602482015277151a195c99481a5cc8185b881858dd1a5d99481c9bdd5b9960421b604482015260640161045b565b600380545f91829055600654915460405163a9059cbb60e01b81526001600160a01b039182166004820152602481018390529192169063a9059cbb906044016020604051808303815f875af1158015610b04573d5f5f3e3d5ffd5b505050506040513d601f19601f82011682018060405250810190610b28919061165d565b6106875760405162461bcd60e51b815260040161045b9061167c565b5f818152600760205260409020600190810154610100900460ff16151514610bae5760405162461bcd60e51b815260206004820152601d60248201527f54686520726f756e64206973206e6f742066696e697368656420796574000000604482015260640161045b565b5f818152600a6020908152604080832033845290915290205460ff1615610c0f5760405162461bcd60e51b8152602060048201526015602482015274141c9a5e9948185b1c9958591e4818db185a5b5959605a1b604482015260640161045b565b5f81815260076020526040902060060154610c7a5760405162461bcd60e51b815260206004820152602560248201527f5468657265206973206e6f2072656d61696e696e6720636c61696d61626c65206044820152647072697a6560d81b606482015260840161045b565b5f818152600760209081526040808320600101546009835281842060ff9091168085529083528184203385529092529091205480610cfa5760405162461bcd60e51b815260206004820152601760248201527f4e6f2077696e6e696e672062657420746f20636c61696d000000000000000000604482015260640161045b565b5f83815260086020908152604080832060ff8616845282528083205486845260079092528220600501549091908290610d33908561160c565b610d3d9190611637565b5f868152600a602090815260408083203384529091528120805460ff19166001179055600580549293508392909190610d7790849061164a565b90915550505f8581526007602052604081206006018054839290610d9c90849061164a565b909155505060065460405163a9059cbb60e01b8152336004820152602481018390526001600160a01b039091169063a9059cbb906044016020604051808303815f875af1158015610def573d5f5f3e3d5ffd5b505050506040513d601f19601f82011682018060405250810190610e13919061165d565b610e2f5760405162461bcd60e51b815260040161045b9061167c565b60405181815233907fbd3e2d83dc10110e2993277e19d7c980e406e1f21c22ae3027a8179706e8ff149060200160405180910390a25050505050565b5f54600160a01b900460ff161515600114610ec85760405162461bcd60e51b815260206004820152601c60248201527f5468657265206973206e6f7420616e2061637469766520726f756e6400000000604482015260640161045b565b6001545f908152600760205260409020600301544210610f2a5760405162461bcd60e51b815260206004820152601d60248201527f54686520726f756e6427732074696d65206861732066696e6973686564000000604482015260640161045b565b610f3261068a565b60ff168260ff1610610f775760405162461bcd60e51b815260206004820152600e60248201526d125b9d985b1a5908185b9a5b585b60921b604482015260640161045b565b610f84620f4240826116aa565b15610fdd5760405162461bcd60e51b815260206004820152602360248201527f416d6f756e74206d7573742062652061206d756c7469706c65206f662031205560448201526214d11560ea1b606482015260840161045b565b620f42408110156110255760405162461bcd60e51b8152602060048201526012602482015271135a5b9a5b5d5b4818995d080c481554d11560721b604482015260640161045b565b6001545f90815260096020908152604080832060ff861684528252808320338452909152902054624c4b4061105a83836115cc565b11156110905761106a82826115cc565b60405163e587658960e01b81526004810191909152624c4b40602482015260440161045b565b6001545f90815260086020908152604080832060ff871684529091529020546305f5e1006110be84836115cc565b11156110f5576110ce83826115cc565b6040516343d390b360e01b815260048101919091526305f5e100602482015260440161045b565b6006546040516323b872dd60e01b8152336004820152306024820152604481018590526001600160a01b03909116906323b872dd906064016020604051808303815f875af1158015611149573d5f5f3e3d5ffd5b505050506040513d601f19601f8201168201806040525081019061116d919061165d565b6111895760405162461bcd60e51b815260040161045b9061167c565b6001545f90815260076020526040812080548592906111a99084906115cc565b90915550506001545f90815260086020908152604080832060ff88168452909152812080548592906111dc9084906115cc565b90915550506001545f90815260096020908152604080832060ff881684528252808320338452909152812080548592906112179084906115cc565b909155505060405183815260ff85169033907ff4213577f2c6736d30d9eb300b3a6d008a1788f08b4cb9dbd104fe01f691041e9060200160405180910390a350505050565b60605f61126761068a565b90505f8160ff1667ffffffffffffffff811115611286576112866116bd565b6040519080825280602002602001820160405280156112af578160200160208202803683370190505b5090505f5b8260ff168160ff161015611319575f86815260096020908152604080832060ff85168085529083528184206001600160a01b038a168552909252909120548351909184918110611306576113066116d1565b60209081029190910101526001016112b4565b509150505b92915050565b5f80424461133360014361164a565b60408051602081019490945283019190915240606082015260800160408051601f19818403018152919052805160209091012090506113736064826116aa565b91505090565b5f80424461138860014361164a565b604080516020810194909452830191909152406060820152608001604051602081830303815290604052805190602001205f1c90506113c561068a565b6113d29060ff16826116aa565b601f811115611373576113736115df565b5f602082840312156113f3575f5ffd5b813561ffff81168114611404575f5ffd5b9392505050565b5f6020828403121561141b575f5ffd5b5035919050565b80356001600160a01b0381168114611438575f5ffd5b919050565b5f5f6040838503121561144e575f5ffd5b8235915061145e60208401611422565b90509250929050565b803560ff81168114611438575f5ffd5b5f5f5f60608486031215611489575f5ffd5b8335925061149960208501611467565b91506114a760408501611422565b90509250925092565b5f5f604083850312156114c1575f5ffd5b8235915061145e60208401611467565b5f5f604083850312156114e2575f5ffd5b6114eb83611467565b946020939093013593505050565b602080825282518282018190525f918401906040840190835b81811015611530578351835260209384019390920191600101611512565b509095945050505050565b60208082526021908201527f4f6e6c79206f776e65722063616e2063616c6c20746869732066756e6374696f6040820152603760f91b606082015260800190565b634e487b7160e01b5f52601160045260245ffd5b5f600182016115a1576115a161157c565b5060010190565b61ffff81811683821602908116908181146115c5576115c561157c565b5092915050565b8082018082111561131e5761131e61157c565b634e487b7160e01b5f52602160045260245ffd5b60ff818116838216019081111561131e5761131e61157c565b808202811582820484141761131e5761131e61157c565b634e487b7160e01b5f52601260045260245ffd5b5f8261164557611645611623565b500490565b8181038181111561131e5761131e61157c565b5f6020828403121561166d575f5ffd5b81518015158114611404575f5ffd5b6020808252601490820152731554d11508151c985b9cd9995c8819985a5b195960621b604082015260600190565b5f826116b8576116b8611623565b500690565b634e487b7160e01b5f52604160045260245ffd5b634e487b7160e01b5f52603260045260245ffdfea264697066735822122027b1664b2eb69c7b5adc2e3e94ccae3a50508662c7bbdf441bed6a1d4e9b777e64736f6c634300081c0033",
  "linkReferences": {},
  "deployedLinkReferences": {},
  "immutableReferences": {},
  "inputSourceName": "project/contracts/animalitos.sol",
  "buildInfoId": "solc-0_8_28-950ede5996e510482a618b3a7952d2125fd40f30"
}