{
  "_format": "hh3-artifact-1",
  "contractName": "Animalitos",
  "sourceName": "contracts/animalitos.sol",
  "abi": [
    {
      "inputs": [
        {
          "internalType": "address",
          "name": "_usdtAddress",
          "type": "address"
        }
      ],
      "stateMutability": "nonpayable",
      "type": "constructor"
    },
    {
      "inputs": [
        {
          "internalType": "uint256",
          "name": "amount",
          "type": "uint256"
        },
        {
          "internalType": "uint256",
          "name": "limit",
          "type": "uint256"
        }
      ],
      "name": "MaxBetPerAnimalPerRoundExceeded",
      "type": "error"
    },
    {
      "inputs": [
        {
          "internalType": "uint256",
          "name": "amount",
          "type": "uint256"
        },
        {
          "internalType": "uint256",
          "name": "limit",
          "type": "uint256"
        }
      ],
      "name": "MaxBetPerUserPerAnimalExceeded",
      "type": "error"
    },
    {
      "anonymous": false,
      "inputs": [
        {
          "indexed": true,
          "internalType": "address",
          "name": "user",
          "type": "address"
        },
        {
          "indexed": true,
          "internalType": "uint8",
          "name": "animal",
          "type": "uint8"
        },
        {
          "indexed": false,
          "internalType": "uint256",
          "name": "amount",
          "type": "uint256"
        }
      ],
      "name": "betPlaced",
      "type": "event"
    },
    {
      "anonymous": false,
      "inputs": [
        {
          "indexed": true,
          "internalType": "address",
          "name": "user",
          "type": "address"
        },
        {
          "indexed": false,
          "internalType": "uint256",
          "name": "amount",
          "type": "uint256"
        }
      ],
      "name": "prizeClaimed",
      "type": "event"
    },
    {
      "anonymous": false,
      "inputs": [
        {
          "indexed": true,
          "internalType": "uint256",
          "name": "roundNumber",
          "type": "uint256"
        },
        {
          "indexed": true,
          "internalType": "uint8",
          "name": "winner",
          "type": "uint8"
        }
      ],
      "name": "roundEnded",
      "type": "event"
    },
    {
      "anonymous": false,
      "inputs": [
        {
          "indexed": true,
          "internalType": "uint256",
          "name": "roundNumber",
          "type": "uint256"
        },
        {
          "indexed": false,
          "internalType": "uint16",
          "name": "duration",
          "type": "uint16"
        }
      ],
      "name": "roundStarted",
      "type": "event"
    },
    {
      "anonymous": false,
      "inputs": [
        {
          "indexed": true,
          "internalType": "uint256",
          "name": "roundNumber",
          "type": "uint256"
        },
        {
          "indexed": false,
          "internalType": "uint256",
          "name": "jackpotValue",
          "type": "uint256"
        }
      ],
      "name": "specialRoundStarted",
      "type": "event"
    },
    {
      "inputs": [],
      "name": "HOUSE_FEE_PERCENT",
      "outputs": [
        {
          "internalType": "uint8",
          "name": "",
          "type": "uint8"
        }
      ],
      "stateMutability": "view",
      "type": "function"
    },
    {
      "inputs": [],
      "name": "JACKPOT_PERCENT",
      "outputs": [
        {
          "internalType": "uint8",
          "name": "",
          "type": "uint8"
        }
      ],
      "stateMutability": "view",
      "type": "function"
    },
    {
      "inputs": [],
      "name": "MAX_ANIMAL_BET_TOTAL",
      "outputs": [
        {
          "internalType": "uint256",
          "name": "",
          "type": "uint256"
        }
      ],
      "stateMutability": "view",
      "type": "function"
    },
    {
      "inputs": [],
      "name": "MAX_ANIMAL_BET_USER",
      "outputs": [
        {
          "internalType": "uint256",
          "name": "",
          "type": "uint256"
        }
      ],
      "stateMutability": "view",
      "type": "function"
    },
    {
      "inputs": [],
      "name": "MIN_JACKPOT",
      "outputs": [
        {
          "internalType": "uint256",
          "name": "",
          "type": "uint256"
        }
      ],
      "stateMutability": "view",
      "type": "function"
    },
    {
      "inputs": [
        {
          "internalType": "uint256",
          "name": "",
          "type": "uint256"
        },
        {
          "internalType": "uint8",
          "name": "",
          "type": "uint8"
        },
        {
          "internalType": "address",
          "name": "",
          "type": "address"
        }
      ],
      "name": "bets",
      "outputs": [
        {
          "internalType": "uint256",
          "name": "",
          "type": "uint256"
        }
      ],
      "stateMutability": "view",
      "type": "function"
    },
    {
      "inputs": [
        {
          "internalType": "uint256",
          "name": "roundNumber",
          "type": "uint256"
        }
      ],
      "name": "claimPrize",
      "outputs": [],
      "stateMutability": "nonpayable",
      "type": "function"
    },
    {
      "inputs": [
        {
          "internalType": "uint256",
          "name": "",
          "type": "uint256"
        },
        {
          "internalType": "address",
          "name": "",
          "type": "address"
        }
      ],
      "name": "claimed",
      "outputs": [
        {
          "internalType": "bool",
          "name": "",
          "type": "bool"
        }
      ],
      "stateMutability": "view",
      "type": "function"
    },
    {
      "inputs": [],
      "name": "currentPrizePool",
      "outputs": [
        {
          "internalType": "uint256",
          "name": "",
          "type": "uint256"
        }
      ],
      "stateMutability": "view",
      "type": "function"
    },
    {
      "inputs": [],
      "name": "currentRound",
      "outputs": [
        {
          "internalType": "uint256",
          "name": "",
          "type": "uint256"
        }
      ],
      "stateMutability": "view",
      "type": "function"
    },
    {
      "inputs": [],
      "name": "endRound",
      "outputs": [],
      "stateMutability": "nonpayable",
      "type": "function"
    },
    {
      "inputs": [
        {
          "internalType": "uint256",
          "name": "roundNumber",
          "type": "uint256"
        }
      ],
      "name": "getRemainingPrize",
      "outputs": [
        {
          "internalType": "uint256",
          "name": "",
          "type": "uint256"
        }
      ],
      "stateMutability": "view",
      "type": "function"
    },
    {
      "inputs": [
        {
          "internalType": "uint256",
          "name": "roundNumber",
          "type": "uint256"
        },
        {
          "internalType": "address",
          "name": "user",
          "type": "address"
        }
      ],
      "name": "getUserBets",
      "outputs": [
        {
          "internalType": "uint256[]",
          "name": "",
          "type": "uint256[]"
        }
      ],
      "stateMutability": "view",
      "type": "function"
    },
    {
      "inputs": [
        {
          "internalType": "uint256",
          "name": "roundNumber",
          "type": "uint256"
        }
      ],
      "name": "getWinningAnimal",
      "outputs": [
        {
          "internalType": "uint8",
          "name": "",
          "type": "uint8"
        }
      ],
      "stateMutability": "view",
      "type": "function"
    },
    {
      "inputs": [],
      "name": "houseBalance",
      "outputs": [
        {
          "internalType": "uint256",
          "name": "",
          "type": "uint256"
        }
      ],
      "stateMutability": "view",
      "type": "function"
    },
    {
      "inputs": [],
      "name": "jackpotPool",
      "outputs": [
        {
          "internalType": "uint256",
          "name": "",
          "type": "uint256"
        }
      ],
      "stateMutability": "view",
      "type": "function"
    },
    {
      "inputs": [],
      "name": "owner",
      "outputs": [
        {
          "internalType": "address",
          "name": "",
          "type": "address"
        }
      ],
      "stateMutability": "view",
      "type": "function"
    },
    {
      "inputs": [
        {
          "internalType": "uint8",
          "name": "animal",
          "type": "uint8"
        },
        {
          "internalType": "uint256",
          "name": "amount",
          "type": "uint256"
        }
      ],
      "name": "placeBet",
      "outputs": [],
      "stateMutability": "nonpayable",
      "type": "function"
    },
    {
      "inputs": [],
      "name": "roundActive",
      "outputs": [
        {
          "internalType": "bool",
          "name": "",
          "type": "bool"
        }
      ],
      "stateMutability": "view",
      "type": "function"
    },
    {
      "inputs": [
        {
          "internalType": "uint256",
          "name": "",
          "type": "uint256"
        }
      ],
      "name": "rounds",
      "outputs": [
        {
          "internalType": "uint256",
          "name": "totalPool",
          "type": "uint256"
        },
        {
          "internalType": "uint8",
          "name": "winningAnimal",
          "type": "uint8"
        },
        {
          "internalType": "bool",
          "name": "finished",
          "type": "bool"
        },
        {
          "internalType": "uint256",
          "name": "roundStartTime",
          "type": "uint256"
        },
        {
          "internalType": "uint256",
          "name": "roundEndTime",
          "type": "uint256"
        },
        {
          "internalType": "bool",
          "name": "isSpecial",
          "type": "bool"
        },
        {
          "internalType": "uint256",
          "name": "claimablePrize",
          "type": "uint256"
        },
        {
          "internalType": "uint256",
          "name": "remainingPrize",
          "type": "uint256"
        }
      ],
      "stateMutability": "view",
      "type": "function"
    },
    {
      "inputs": [],
      "name": "specialRoundProbability",
      "outputs": [
        {
          "internalType": "uint8",
          "name": "",
          "type": "uint8"
        }
      ],
      "stateMutability": "view",
      "type": "function"
    },
    {
      "inputs": [
        {
          "internalType": "uint16",
          "name": "duration",
          "type": "uint16"
        }
      ],
      "name": "startRound",
      "outputs": [],
      "stateMutability": "nonpayable",
      "type": "function"
    },
    {
      "inputs": [
        {
          "internalType": "uint256",
          "name": "",
          "type": "uint256"
        },
        {
          "internalType": "uint8",
          "name": "",
          "type": "uint8"
        }
      ],
      "name": "totalAnimalBets",
      "outputs": [
        {
          "internalType": "uint256",
          "name": "",
          "type": "uint256"
        }
      ],
      "stateMutability": "view",
      "type": "function"
    },
    {
      "inputs": [],
      "name": "totalAnimals",
      "outputs": [
        {
          "internalType": "uint8",
          "name": "",
          "type": "uint8"
        }
      ],
      "stateMutability": "pure",
      "type": "function"
    },
    {
      "inputs": [],
      "name": "usdt",
      "outputs": [
        {
          "internalType": "contract IERC20",
          "name": "",
          "type": "address"
        }
      ],
      "stateMutability": "view",
      "type": "function"
    },
    {
      "inputs": [],
      "name": "withdrawHouseBalance",
      "outputs": [],
      "stateMutability": "nonpayable",
      "type": "function"
    }
  ],
  "bytecode": "0x60806040525f5f60146101000a81548160ff0219169083151502179055505f6001555f60025f6101000a81548160ff021916908360ff160217905550348015610046575f5ffd5b50604051612c79380380612c798339818101604052810190610068919061014b565b335f5f6101000a81548173ffffffffffffffffffffffffffffffffffffffff021916908373ffffffffffffffffffffffffffffffffffffffff1602179055508060065f6101000a81548173ffffffffffffffffffffffffffffffffffffffff021916908373ffffffffffffffffffffffffffffffffffffffff16021790555050610176565b5f5ffd5b5f73ffffffffffffffffffffffffffffffffffffffff82169050919050565b5f61011a826100f1565b9050919050565b61012a81610110565b8114610134575f5ffd5b50565b5f8151905061014581610121565b92915050565b5f602082840312156101605761015f6100ed565b5b5f61016d84828501610137565b91505092915050565b612af6806101835f395ff3fe608060405234801561000f575f5ffd5b506004361061018c575f3560e01c80636c6daa90116100dc578063b05b32ae11610095578063d70981541161006f578063d70981541461046d578063dcb3b30e14610489578063ef0a7c2d146104a5578063fa744dd3146104c35761018c565b8063b05b32ae14610415578063b95328ff14610433578063c7bafdcb146104635761018c565b80636c6daa901461034a578063749aa2d91461037a5780638a19c8bc146103845780638c65c81f146103a25780638da5cb5b146103d9578063ade5c0bc146103f75761018c565b80632f48ab7d116101495780635537be7f116101235780635537be7f146102d257806367084eb3146102f0578063675f8aea1461030e5780636a0ec9251461032c5761018c565b80632f48ab7d146102665780633dc295fa1461028457806347562347146102a25761018c565b8063027471b01461019057806302cab95a146101ae57806302f6b274146101ca578063117692be146101e8578063120aa877146102185780631407a80a14610248575b5f5ffd5b6101986104f3565b6040516101a59190611b68565b60405180910390f35b6101c860048036038101906101c39190611bbc565b610505565b005b6101d2610810565b6040516101df9190611bff565b60405180910390f35b61020260048036038101906101fd9190611c42565b610817565b60405161020f9190611bff565b60405180910390f35b610232600480360381019061022d9190611cc7565b610834565b60405161023f9190611b68565b60405180910390f35b61025061085e565b60405161025d9190611d20565b60405180910390f35b61026e610863565b60405161027b9190611d94565b60405180910390f35b61028c610888565b6040516102999190611bff565b60405180910390f35b6102bc60048036038101906102b79190611c42565b610890565b6040516102c99190611d20565b60405180910390f35b6102da6108b9565b6040516102e79190611d20565b60405180910390f35b6102f86108be565b6040516103059190611bff565b60405180910390f35b6103166108c4565b6040516103239190611bff565b60405180910390f35b6103346108ca565b6040516103419190611d20565b60405180910390f35b610364600480360381019061035f9190611dd7565b6108ef565b6040516103719190611bff565b60405180910390f35b61038261091a565b005b61038c610d5d565b6040516103999190611bff565b60405180910390f35b6103bc60048036038101906103b79190611c42565b610d63565b6040516103d0989796959493929190611e27565b60405180910390f35b6103e1610dcc565b6040516103ee9190611eb2565b60405180910390f35b6103ff610df0565b60405161040c9190611d20565b60405180910390f35b61041d610e02565b60405161042a9190611bff565b60405180910390f35b61044d60048036038101906104489190611ecb565b610e08565b60405161045a9190611bff565b60405180910390f35b61046b610e28565b005b61048760048036038101906104829190611c42565b611015565b005b6104a3600480360381019061049e9190611f09565b61146a565b005b6104ad61197d565b6040516104ba9190611bff565b60405180910390f35b6104dd60048036038101906104d89190611cc7565b611985565b6040516104ea9190611ffe565b60405180910390f35b5f60149054906101000a900460ff1681565b5f15155f60149054906101000a900460ff16151514610559576040517f08c379a000000000000000000000000000000000000000000000000000000000815260040161055090612078565b60405180910390fd5b5f5f9054906101000a900473ffffffffffffffffffffffffffffffffffffffff1673ffffffffffffffffffffffffffffffffffffffff163373ffffffffffffffffffffffffffffffffffffffff16146105e7576040517f08c379a00000000000000000000000000000000000000000000000000000000081526004016105de90612106565b60405180910390fd5b60028161ffff16101561062f576040517f08c379a000000000000000000000000000000000000000000000000000000000815260040161062690612194565b60405180910390fd5b60015f60146101000a81548160ff02191690831515021790555060015f81548092919061065b906121df565b91905055504260075f60015481526020019081526020015f2060020181905550603c816106889190612226565b61ffff1660075f60015481526020019081526020015f20600201546106ad9190612262565b60075f60015481526020019081526020015f2060030181905550631dcd6500600454101580156106f7575060025f9054906101000a900460ff1660ff166106f2611a91565b60ff16105b156107a557600160075f60015481526020019081526020015f206004015f6101000a81548160ff0219169083151502179055506001547f8a9736bf4f26e2df36f67e7afc1c7976dd2b6331b3a073385f8fc93d427f29858260405161075c91906122a4565b60405180910390a26001547f9d2844be46f0c0b9aad486f910ede193ae677066c380844aa8a4d605438ea3586004546040516107989190611bff565b60405180910390a261080d565b5f60075f60015481526020019081526020015f206004015f6101000a81548160ff0219169083151502179055506001547f8a9736bf4f26e2df36f67e7afc1c7976dd2b6331b3a073385f8fc93d427f29858260405161080491906122a4565b60405180910390a25b50565b624c4b4081565b5f60075f8381526020019081526020015f20600601549050919050565b600a602052815f5260405f20602052805f5260405f205f915091509054906101000a900460ff1681565b600581565b60065f9054906101000a900473ffffffffffffffffffffffffffffffffffffffff1681565b631dcd650081565b5f60075f8381526020019081526020015f206001015f9054906101000a900460ff169050919050565b600a81565b60035481565b60055481565b5f6001601f808111156108e0576108df6122bd565b5b6108ea91906122ea565b905090565b6009602052825f5260405f20602052815f5260405f20602052805f5260405f205f9250925050505481565b600115155f60149054906101000a900460ff1615151461096f576040517f08c379a000000000000000000000000000000000000000000000000000000000815260040161096690612368565b60405180910390fd5b4260075f60015481526020019081526020015f2060030154106109c7576040517f08c379a00000000000000000000000000000000000000000000000000000000081526004016109be906123f6565b60405180910390fd5b5f5f60146101000a81548160ff021916908315150217905550600160075f60015481526020019081526020015f2060010160016101000a81548160ff0219169083151502179055505f610a18611ae2565b601f811115610a2a57610a296122bd565b5b90508060075f60015481526020019081526020015f206001015f6101000a81548160ff021916908360ff1602179055505f60075f60015481526020019081526020015f205f015490505f6064600a60ff1683610a869190612414565b610a909190612482565b90505f6064600560ff1684610aa59190612414565b610aaf9190612482565b90505f818385610abf91906124b2565b610ac991906124b2565b90505f60085f60015481526020019081526020015f205f8760ff1660ff1681526020019081526020015f205490505f811115610c10578360035f828254610b109190612262565b925050819055508260045f828254610b289190612262565b925050819055508160055f828254610b409190612262565b925050819055508160075f60015481526020019081526020015f206005018190555060075f60015481526020019081526020015f206004015f9054906101000a900460ff1615610bda5760045460075f60015481526020019081526020015f206005015f828254610bb19190612262565b9250508190555060045460055f828254610bcb9190612262565b925050819055505f6004819055505b60075f60015481526020019081526020015f206005015460075f60015481526020019081526020015f2060060181905550610c6f565b600282610c1d9190612482565b84610c289190612262565b60035f828254610c389190612262565b92505081905550600282610c4c9190612482565b83610c579190612262565b60045f828254610c679190612262565b925050819055505b631dcd650060045410158015610c965750606460025f9054906101000a900460ff1660ff16105b15610cd657600560025f8282829054906101000a900460ff16610cb991906122ea565b92506101000a81548160ff021916908360ff160217905550610d00565b631dcd65006004541015610cff575f60025f6101000a81548160ff021916908360ff1602179055505b5b60075f60015481526020019081526020015f206001015f9054906101000a900460ff1660ff166001547ff9b7ea5b552f55fcaab784220365de598bdcf29a91d1336e21811dca8e5efe1760405160405180910390a3505050505050565b60015481565b6007602052805f5260405f205f91509050805f015490806001015f9054906101000a900460ff16908060010160019054906101000a900460ff1690806002015490806003015490806004015f9054906101000a900460ff16908060050154908060060154905088565b5f5f9054906101000a900473ffffffffffffffffffffffffffffffffffffffff1681565b60025f9054906101000a900460ff1681565b60045481565b6008602052815f5260405f20602052805f5260405f205f91509150505481565b5f5f9054906101000a900473ffffffffffffffffffffffffffffffffffffffff1673ffffffffffffffffffffffffffffffffffffffff163373ffffffffffffffffffffffffffffffffffffffff1614610eb6576040517f08c379a0000000000000000000000000000000000000000000000000000000008152600401610ead90612106565b60405180910390fd5b5f15155f60149054906101000a900460ff16151514610f0a576040517f08c379a0000000000000000000000000000000000000000000000000000000008152600401610f0190612078565b60405180910390fd5b5f60035490505f60038190555060065f9054906101000a900473ffffffffffffffffffffffffffffffffffffffff1673ffffffffffffffffffffffffffffffffffffffff1663a9059cbb5f5f9054906101000a900473ffffffffffffffffffffffffffffffffffffffff16836040518363ffffffff1660e01b8152600401610f939291906124e5565b6020604051808303815f875af1158015610faf573d5f5f3e3d5ffd5b505050506040513d601f19601f82011682018060405250810190610fd39190612536565b611012576040517f08c379a0000000000000000000000000000000000000000000000000000000008152600401611009906125ab565b60405180910390fd5b50565b6001151560075f8381526020019081526020015f2060010160019054906101000a900460ff1615151461107d576040517f08c379a000000000000000000000000000000000000000000000000000000000815260040161107490612613565b60405180910390fd5b5f1515600a5f8381526020019081526020015f205f3373ffffffffffffffffffffffffffffffffffffffff1673ffffffffffffffffffffffffffffffffffffffff1681526020019081526020015f205f9054906101000a900460ff1615151461111b576040517f08c379a00000000000000000000000000000000000000000000000000000000081526004016111129061267b565b60405180910390fd5b5f60075f8381526020019081526020015f206006015411611171576040517f08c379a000000000000000000000000000000000000000000000000000000000815260040161116890612709565b60405180910390fd5b5f60075f8381526020019081526020015f206001015f9054906101000a900460ff1690505f60095f8481526020019081526020015f205f8360ff1660ff1681526020019081526020015f205f3373ffffffffffffffffffffffffffffffffffffffff1673ffffffffffffffffffffffffffffffffffffffff1681526020019081526020015f205490505f811161123c576040517f08c379a000000000000000000000000000000000000000000000000000000000815260040161123390612771565b60405180910390fd5b5f60085f8581526020019081526020015f205f8460ff1660ff1681526020019081526020015f205490505f8160075f8781526020019081526020015f2060050154846112889190612414565b6112929190612482565b90506001600a5f8781526020019081526020015f205f3373ffffffffffffffffffffffffffffffffffffffff1673ffffffffffffffffffffffffffffffffffffffff1681526020019081526020015f205f6101000a81548160ff0219169083151502179055508060055f82825461130991906124b2565b925050819055508060075f8781526020019081526020015f206006015f82825461133391906124b2565b9250508190555060065f9054906101000a900473ffffffffffffffffffffffffffffffffffffffff1673ffffffffffffffffffffffffffffffffffffffff1663a9059cbb33836040518363ffffffff1660e01b81526004016113969291906124e5565b6020604051808303815f875af11580156113b2573d5f5f3e3d5ffd5b505050506040513d601f19601f820116820180604052508101906113d69190612536565b611415576040517f08c379a000000000000000000000000000000000000000000000000000000000815260040161140c906125ab565b60405180910390fd5b3373ffffffffffffffffffffffffffffffffffffffff167fbd3e2d83dc10110e2993277e19d7c980e406e1f21c22ae3027a8179706e8ff148260405161145b9190611bff565b60405180910390a25050505050565b600115155f60149054906101000a900460ff161515146114bf576040517f08c379a00000000000000000000000000000000000000000000000000000000081526004016114b690612368565b60405180910390fd5b4260075f60015481526020019081526020015f206003015411611517576040517f08c379a000000000000000000000000000000000000000000000000000000000815260040161150e906127d9565b60405180910390fd5b5f8260ff1610158015611536575061152d6108ca565b60ff168260ff16105b611575576040517f08c379a000000000000000000000000000000000000000000000000000000000815260040161156c90612841565b60405180910390fd5b5f620f424082611585919061285f565b146115c5576040517f08c379a00000000000000000000000000000000000000000000000000000000081526004016115bc906128ff565b60405180910390fd5b620f424081101561160b576040517f08c379a000000000000000000000000000000000000000000000000000000000815260040161160290612967565b60405180910390fd5b5f60095f60015481526020019081526020015f205f8460ff1660ff1681526020019081526020015f205f3373ffffffffffffffffffffffffffffffffffffffff1673ffffffffffffffffffffffffffffffffffffffff1681526020019081526020015f20549050624c4b4082826116829190612262565b11156116d55781816116949190612262565b624c4b406040517fe58765890000000000000000000000000000000000000000000000000000000081526004016116cc929190612985565b60405180910390fd5b5f60085f60015481526020019081526020015f205f8560ff1660ff1681526020019081526020015f205490506305f5e10083826117129190612262565b11156117665782816117249190612262565b6305f5e1006040517f43d390b300000000000000000000000000000000000000000000000000000000815260040161175d929190612985565b60405180910390fd5b60065f9054906101000a900473ffffffffffffffffffffffffffffffffffffffff1673ffffffffffffffffffffffffffffffffffffffff166323b872dd3330866040518463ffffffff1660e01b81526004016117c4939291906129ac565b6020604051808303815f875af11580156117e0573d5f5f3e3d5ffd5b505050506040513d601f19601f820116820180604052508101906118049190612536565b611843576040517f08c379a000000000000000000000000000000000000000000000000000000000815260040161183a906125ab565b60405180910390fd5b8260075f60015481526020019081526020015f205f015f8282546118679190612262565b925050819055508260085f60015481526020019081526020015f205f8660ff1660ff1681526020019081526020015f205f8282546118a59190612262565b925050819055508260095f60015481526020019081526020015f205f8660ff1660ff1681526020019081526020015f205f3373ffffffffffffffffffffffffffffffffffffffff1673ffffffffffffffffffffffffffffffffffffffff1681526020019081526020015f205f82825461191e9190612262565b925050819055508360ff163373ffffffffffffffffffffffffffffffffffffffff167ff4213577f2c6736d30d9eb300b3a6d008a1788f08b4cb9dbd104fe01f691041e8560405161196f9190611bff565b60405180910390a350505050565b6305f5e10081565b60605f6119906108ca565b90505f8160ff1667ffffffffffffffff8111156119b0576119af6129e1565b5b6040519080825280602002602001820160405280156119de5781602001602082028036833780820191505090505b5090505f5f90505b8260ff168160ff161015611a855760095f8781526020019081526020015f205f8260ff1660ff1681526020019081526020015f205f8673ffffffffffffffffffffffffffffffffffffffff1673ffffffffffffffffffffffffffffffffffffffff1681526020019081526020015f2054828260ff1681518110611a6c57611a6b612a0e565b5b60200260200101818152505080806001019150506119e6565b50809250505092915050565b5f5f4244600143611aa291906124b2565b40604051602001611ab593929190612a84565b604051602081830303815290604052805190602001205f1c9050606481611adc919061285f565b91505090565b5f5f4244600143611af391906124b2565b40604051602001611b0693929190612a84565b604051602081830303815290604052805190602001205f1c9050611b286108ca565b60ff1681611b36919061285f565b601f811115611b4857611b476122bd565b5b91505090565b5f8115159050919050565b611b6281611b4e565b82525050565b5f602082019050611b7b5f830184611b59565b92915050565b5f5ffd5b5f61ffff82169050919050565b611b9b81611b85565b8114611ba5575f5ffd5b50565b5f81359050611bb681611b92565b92915050565b5f60208284031215611bd157611bd0611b81565b5b5f611bde84828501611ba8565b91505092915050565b5f819050919050565b611bf981611be7565b82525050565b5f602082019050611c125f830184611bf0565b92915050565b611c2181611be7565b8114611c2b575f5ffd5b50565b5f81359050611c3c81611c18565b92915050565b5f60208284031215611c5757611c56611b81565b5b5f611c6484828501611c2e565b91505092915050565b5f73ffffffffffffffffffffffffffffffffffffffff82169050919050565b5f611c9682611c6d565b9050919050565b611ca681611c8c565b8114611cb0575f5ffd5b50565b5f81359050611cc181611c9d565b92915050565b5f5f60408385031215611cdd57611cdc611b81565b5b5f611cea85828601611c2e565b9250506020611cfb85828601611cb3565b9150509250929050565b5f60ff82169050919050565b611d1a81611d05565b82525050565b5f602082019050611d335f830184611d11565b92915050565b5f819050919050565b5f611d5c611d57611d5284611c6d565b611d39565b611c6d565b9050919050565b5f611d6d82611d42565b9050919050565b5f611d7e82611d63565b9050919050565b611d8e81611d74565b82525050565b5f602082019050611da75f830184611d85565b92915050565b611db681611d05565b8114611dc0575f5ffd5b50565b5f81359050611dd181611dad565b92915050565b5f5f5f60608486031215611dee57611ded611b81565b5b5f611dfb86828701611c2e565b9350506020611e0c86828701611dc3565b9250506040611e1d86828701611cb3565b9150509250925092565b5f61010082019050611e3b5f83018b611bf0565b611e48602083018a611d11565b611e556040830189611b59565b611e626060830188611bf0565b611e6f6080830187611bf0565b611e7c60a0830186611b59565b611e8960c0830185611bf0565b611e9660e0830184611bf0565b9998505050505050505050565b611eac81611c8c565b82525050565b5f602082019050611ec55f830184611ea3565b92915050565b5f5f60408385031215611ee157611ee0611b81565b5b5f611eee85828601611c2e565b9250506020611eff85828601611dc3565b9150509250929050565b5f5f60408385031215611f1f57611f1e611b81565b5b5f611f2c85828601611dc3565b9250506020611f3d85828601611c2e565b9150509250929050565b5f81519050919050565b5f82825260208201905092915050565b5f819050602082019050919050565b611f7981611be7565b82525050565b5f611f8a8383611f70565b60208301905092915050565b5f602082019050919050565b5f611fac82611f47565b611fb68185611f51565b9350611fc183611f61565b805f5b83811015611ff1578151611fd88882611f7f565b9750611fe383611f96565b925050600181019050611fc4565b5085935050505092915050565b5f6020820190508181035f8301526120168184611fa2565b905092915050565b5f82825260208201905092915050565b7f546865726520697320616e2061637469766520726f756e6400000000000000005f82015250565b5f61206260188361201e565b915061206d8261202e565b602082019050919050565b5f6020820190508181035f83015261208f81612056565b9050919050565b7f4f6e6c79206f776e65722063616e2063616c6c20746869732066756e6374696f5f8201527f6e00000000000000000000000000000000000000000000000000000000000000602082015250565b5f6120f060218361201e565b91506120fb82612096565b604082019050919050565b5f6020820190508181035f83015261211d816120e4565b9050919050565b7f526f756e6473206d757374206265206174206c656173742032206d696e7574655f8201527f73206c6f6e670000000000000000000000000000000000000000000000000000602082015250565b5f61217e60268361201e565b915061218982612124565b604082019050919050565b5f6020820190508181035f8301526121ab81612172565b9050919050565b7f4e487b71000000000000000000000000000000000000000000000000000000005f52601160045260245ffd5b5f6121e982611be7565b91507fffffffffffffffffffffffffffffffffffffffffffffffffffffffffffffffff820361221b5761221a6121b2565b5b600182019050919050565b5f61223082611b85565b915061223b83611b85565b925082820261224981611b85565b915080821461225b5761225a6121b2565b5b5092915050565b5f61226c82611be7565b915061227783611be7565b925082820190508082111561228f5761228e6121b2565b5b92915050565b61229e81611b85565b82525050565b5f6020820190506122b75f830184612295565b92915050565b7f4e487b71000000000000000000000000000000000000000000000000000000005f52602160045260245ffd5b5f6122f482611d05565b91506122ff83611d05565b9250828201905060ff811115612318576123176121b2565b5b92915050565b7f5468657265206973206e6f7420616e2061637469766520726f756e64000000005f82015250565b5f612352601c8361201e565b915061235d8261231e565b602082019050919050565b5f6020820190508181035f83015261237f81612346565b9050919050565b7f54686520726f756e6427732074696d6520686173206e6f742066696e697368655f8201527f6400000000000000000000000000000000000000000000000000000000000000602082015250565b5f6123e060218361201e565b91506123eb82612386565b604082019050919050565b5f6020820190508181035f83015261240d816123d4565b9050919050565b5f61241e82611be7565b915061242983611be7565b925082820261243781611be7565b9150828204841483151761244e5761244d6121b2565b5b5092915050565b7f4e487b71000000000000000000000000000000000000000000000000000000005f52601260045260245ffd5b5f61248c82611be7565b915061249783611be7565b9250826124a7576124a6612455565b5b828204905092915050565b5f6124bc82611be7565b91506124c783611be7565b92508282039050818111156124df576124de6121b2565b5b92915050565b5f6040820190506124f85f830185611ea3565b6125056020830184611bf0565b9392505050565b61251581611b4e565b811461251f575f5ffd5b50565b5f815190506125308161250c565b92915050565b5f6020828403121561254b5761254a611b81565b5b5f61255884828501612522565b91505092915050565b7f55534454205472616e73666572206661696c65640000000000000000000000005f82015250565b5f61259560148361201e565b91506125a082612561565b602082019050919050565b5f6020820190508181035f8301526125c281612589565b9050919050565b7f54686520726f756e64206973206e6f742066696e6973686564207965740000005f82015250565b5f6125fd601d8361201e565b9150612608826125c9565b602082019050919050565b5f6020820190508181035f83015261262a816125f1565b9050919050565b7f5072697a6520616c726561647920636c61696d656400000000000000000000005f82015250565b5f61266560158361201e565b915061267082612631565b602082019050919050565b5f6020820190508181035f83015261269281612659565b9050919050565b7f5468657265206973206e6f2072656d61696e696e6720636c61696d61626c65205f8201527f7072697a65000000000000000000000000000000000000000000000000000000602082015250565b5f6126f360258361201e565b91506126fe82612699565b604082019050919050565b5f6020820190508181035f830152612720816126e7565b9050919050565b7f4e6f2077696e6e696e672062657420746f20636c61696d0000000000000000005f82015250565b5f61275b60178361201e565b915061276682612727565b602082019050919050565b5f6020820190508181035f8301526127888161274f565b9050919050565b7f54686520726f756e6427732074696d65206861732066696e69736865640000005f82015250565b5f6127c3601d8361201e565b91506127ce8261278f565b602082019050919050565b5f6020820190508181035f8301526127f0816127b7565b9050919050565b7f496e76616c696420616e696d616c0000000000000000000000000000000000005f82015250565b5f61282b600e8361201e565b9150612836826127f7565b602082019050919050565b5f6020820190508181035f8301526128588161281f565b9050919050565b5f61286982611be7565b915061287483611be7565b92508261288457612883612455565b5b828206905092915050565b7f416d6f756e74206d7573742062652061206d756c7469706c65206f66203120555f8201527f5344540000000000000000000000000000000000000000000000000000000000602082015250565b5f6128e960238361201e565b91506128f48261288f565b604082019050919050565b5f6020820190508181035f830152612916816128dd565b9050919050565b7f4d696e696d756d206265742031205553445400000000000000000000000000005f82015250565b5f61295160128361201e565b915061295c8261291d565b602082019050919050565b5f6020820190508181035f83015261297e81612945565b9050919050565b5f6040820190506129985f830185611bf0565b6129a56020830184611bf0565b9392505050565b5f6060820190506129bf5f830186611ea3565b6129cc6020830185611ea3565b6129d96040830184611bf0565b949350505050565b7f4e487b71000000000000000000000000000000000000000000000000000000005f52604160045260245ffd5b7f4e487b71000000000000000000000000000000000000000000000000000000005f52603260045260245ffd5b5f819050919050565b612a55612a5082611be7565b612a3b565b82525050565b5f819050919050565b5f819050919050565b612a7e612a7982612a5b565b612a64565b82525050565b5f612a8f8286612a44565b602082019150612a9f8285612a44565b602082019150612aaf8284612a6d565b60208201915081905094935050505056fea2646970667358221220955fc57b7d6d6361f5456587efe74060c1cdce420283aa6310a421dcdb5b388864736f6c634300081c0033",
  "linkReferences": {},
  "deployedLinkReferences": {},
  "immutableReferences": {},
  "inputSourceName": "project/contracts/animalitos.sol",
  "buildInfoId": "solc-0_8_28-cc9fc676eae16306c6c46e95500789b794d68e35"
}