{
  "_format": "hh3-artifact-1",
  "contractName": "Animalitos",
  "sourceName": "contracts/animalitos.sol",
  "abi": [
    {
      "inputs": [
        {
          "internalType": "address",
          "name": "_usdtAddress",
          "type": "address"
        }
      ],
      "stateMutability": "nonpayable",
      "type": "constructor"
    },
    {
      "inputs": [
        {
          "internalType": "uint256",
          "name": "amount",
          "type": "uint256"
        },
        {
          "internalType": "uint256",
          "name": "limit",
          "type": "uint256"
        }
      ],
      "name": "MaxBetPerAnimalPerRoundExceeded",
      "type": "error"
    },
    {
      "inputs": [
        {
          "internalType": "uint256",
          "name": "amount",
          "type": "uint256"
        },
        {
          "internalType": "uint256",
          "name": "limit",
          "type": "uint256"
        }
      ],
      "name": "MaxBetPerUserPerAnimalExceeded",
      "type": "error"
    },
    {
      "anonymous": false,
      "inputs": [
        {
          "indexed": true,
          "internalType": "address",
          "name": "user",
          "type": "address"
        },
        {
          "indexed": true,
          "internalType": "uint8",
          "name": "animal",
          "type": "uint8"
        },
        {
          "indexed": true,
          "internalType": "uint256",
          "name": "round",
          "type": "uint256"
        },
        {
          "indexed": false,
          "internalType": "uint256",
          "name": "amount",
          "type": "uint256"
        }
      ],
      "name": "BetPlaced",
      "type": "event"
    },
    {
      "anonymous": false,
      "inputs": [
        {
          "indexed": true,
          "internalType": "address",
          "name": "user",
          "type": "address"
        },
        {
          "indexed": false,
          "internalType": "uint256",
          "name": "amount",
          "type": "uint256"
        }
      ],
      "name": "PrizeClaimed",
      "type": "event"
    },
    {
      "anonymous": false,
      "inputs": [
        {
          "indexed": true,
          "internalType": "uint256",
          "name": "roundNumber",
          "type": "uint256"
        },
        {
          "indexed": true,
          "internalType": "uint8",
          "name": "winner",
          "type": "uint8"
        }
      ],
      "name": "RoundEnded",
      "type": "event"
    },
    {
      "anonymous": false,
      "inputs": [
        {
          "indexed": true,
          "internalType": "uint256",
          "name": "roundNumber",
          "type": "uint256"
        },
        {
          "indexed": false,
          "internalType": "uint16",
          "name": "duration",
          "type": "uint16"
        }
      ],
      "name": "RoundStarted",
      "type": "event"
    },
    {
      "anonymous": false,
      "inputs": [
        {
          "indexed": true,
          "internalType": "uint256",
          "name": "roundNumber",
          "type": "uint256"
        },
        {
          "indexed": false,
          "internalType": "uint256",
          "name": "jackpotValue",
          "type": "uint256"
        }
      ],
      "name": "SpecialRoundStarted",
      "type": "event"
    },
    {
      "inputs": [],
      "name": "HOUSE_FEE_PERCENT",
      "outputs": [
        {
          "internalType": "uint8",
          "name": "",
          "type": "uint8"
        }
      ],
      "stateMutability": "view",
      "type": "function"
    },
    {
      "inputs": [],
      "name": "JACKPOT_PERCENT",
      "outputs": [
        {
          "internalType": "uint8",
          "name": "",
          "type": "uint8"
        }
      ],
      "stateMutability": "view",
      "type": "function"
    },
    {
      "inputs": [],
      "name": "MAX_ANIMAL_BET_TOTAL",
      "outputs": [
        {
          "internalType": "uint256",
          "name": "",
          "type": "uint256"
        }
      ],
      "stateMutability": "view",
      "type": "function"
    },
    {
      "inputs": [],
      "name": "MAX_ANIMAL_BET_USER",
      "outputs": [
        {
          "internalType": "uint256",
          "name": "",
          "type": "uint256"
        }
      ],
      "stateMutability": "view",
      "type": "function"
    },
    {
      "inputs": [],
      "name": "MIN_JACKPOT",
      "outputs": [
        {
          "internalType": "uint256",
          "name": "",
          "type": "uint256"
        }
      ],
      "stateMutability": "view",
      "type": "function"
    },
    {
      "inputs": [
        {
          "internalType": "uint256",
          "name": "",
          "type": "uint256"
        },
        {
          "internalType": "uint8",
          "name": "",
          "type": "uint8"
        },
        {
          "internalType": "address",
          "name": "",
          "type": "address"
        }
      ],
      "name": "bets",
      "outputs": [
        {
          "internalType": "uint256",
          "name": "",
          "type": "uint256"
        }
      ],
      "stateMutability": "view",
      "type": "function"
    },
    {
      "inputs": [
        {
          "internalType": "uint256",
          "name": "roundNumber",
          "type": "uint256"
        }
      ],
      "name": "claimPrize",
      "outputs": [],
      "stateMutability": "nonpayable",
      "type": "function"
    },
    {
      "inputs": [
        {
          "internalType": "uint256",
          "name": "",
          "type": "uint256"
        },
        {
          "internalType": "address",
          "name": "",
          "type": "address"
        }
      ],
      "name": "claimed",
      "outputs": [
        {
          "internalType": "bool",
          "name": "",
          "type": "bool"
        }
      ],
      "stateMutability": "view",
      "type": "function"
    },
    {
      "inputs": [],
      "name": "currentPrizePool",
      "outputs": [
        {
          "internalType": "uint256",
          "name": "",
          "type": "uint256"
        }
      ],
      "stateMutability": "view",
      "type": "function"
    },
    {
      "inputs": [],
      "name": "currentRound",
      "outputs": [
        {
          "internalType": "uint256",
          "name": "",
          "type": "uint256"
        }
      ],
      "stateMutability": "view",
      "type": "function"
    },
    {
      "inputs": [],
      "name": "endRound",
      "outputs": [],
      "stateMutability": "nonpayable",
      "type": "function"
    },
    {
      "inputs": [
        {
          "internalType": "uint256",
          "name": "roundNumber",
          "type": "uint256"
        }
      ],
      "name": "getRemainingPrize",
      "outputs": [
        {
          "internalType": "uint256",
          "name": "",
          "type": "uint256"
        }
      ],
      "stateMutability": "view",
      "type": "function"
    },
    {
      "inputs": [
        {
          "internalType": "uint256",
          "name": "roundNumber",
          "type": "uint256"
        },
        {
          "internalType": "address",
          "name": "user",
          "type": "address"
        }
      ],
      "name": "getUserBets",
      "outputs": [
        {
          "internalType": "uint256[]",
          "name": "",
          "type": "uint256[]"
        }
      ],
      "stateMutability": "view",
      "type": "function"
    },
    {
      "inputs": [],
      "name": "houseBalance",
      "outputs": [
        {
          "internalType": "uint256",
          "name": "",
          "type": "uint256"
        }
      ],
      "stateMutability": "view",
      "type": "function"
    },
    {
      "inputs": [],
      "name": "jackpotPool",
      "outputs": [
        {
          "internalType": "uint256",
          "name": "",
          "type": "uint256"
        }
      ],
      "stateMutability": "view",
      "type": "function"
    },
    {
      "inputs": [],
      "name": "owner",
      "outputs": [
        {
          "internalType": "address",
          "name": "",
          "type": "address"
        }
      ],
      "stateMutability": "view",
      "type": "function"
    },
    {
      "inputs": [
        {
          "internalType": "uint8",
          "name": "animal",
          "type": "uint8"
        },
        {
          "internalType": "uint256",
          "name": "amount",
          "type": "uint256"
        }
      ],
      "name": "placeBet",
      "outputs": [],
      "stateMutability": "nonpayable",
      "type": "function"
    },
    {
      "inputs": [
        {
          "internalType": "uint256[]",
          "name": "amounts",
          "type": "uint256[]"
        }
      ],
      "name": "placeMultipleBets",
      "outputs": [],
      "stateMutability": "nonpayable",
      "type": "function"
    },
    {
      "inputs": [],
      "name": "roundActive",
      "outputs": [
        {
          "internalType": "bool",
          "name": "",
          "type": "bool"
        }
      ],
      "stateMutability": "view",
      "type": "function"
    },
    {
      "inputs": [
        {
          "internalType": "uint256",
          "name": "",
          "type": "uint256"
        }
      ],
      "name": "rounds",
      "outputs": [
        {
          "internalType": "uint256",
          "name": "totalPool",
          "type": "uint256"
        },
        {
          "internalType": "uint8",
          "name": "winningAnimal",
          "type": "uint8"
        },
        {
          "internalType": "bool",
          "name": "finished",
          "type": "bool"
        },
        {
          "internalType": "uint256",
          "name": "roundStartTime",
          "type": "uint256"
        },
        {
          "internalType": "uint256",
          "name": "roundEndTime",
          "type": "uint256"
        },
        {
          "internalType": "bool",
          "name": "isSpecial",
          "type": "bool"
        },
        {
          "internalType": "uint256",
          "name": "claimablePrize",
          "type": "uint256"
        },
        {
          "internalType": "uint256",
          "name": "remainingPrize",
          "type": "uint256"
        }
      ],
      "stateMutability": "view",
      "type": "function"
    },
    {
      "inputs": [],
      "name": "specialRoundProbability",
      "outputs": [
        {
          "internalType": "uint8",
          "name": "",
          "type": "uint8"
        }
      ],
      "stateMutability": "view",
      "type": "function"
    },
    {
      "inputs": [
        {
          "internalType": "uint16",
          "name": "duration",
          "type": "uint16"
        }
      ],
      "name": "startRound",
      "outputs": [],
      "stateMutability": "nonpayable",
      "type": "function"
    },
    {
      "inputs": [
        {
          "internalType": "uint256",
          "name": "",
          "type": "uint256"
        },
        {
          "internalType": "uint8",
          "name": "",
          "type": "uint8"
        }
      ],
      "name": "totalAnimalBets",
      "outputs": [
        {
          "internalType": "uint256",
          "name": "",
          "type": "uint256"
        }
      ],
      "stateMutability": "view",
      "type": "function"
    },
    {
      "inputs": [],
      "name": "totalAnimals",
      "outputs": [
        {
          "internalType": "uint8",
          "name": "",
          "type": "uint8"
        }
      ],
      "stateMutability": "pure",
      "type": "function"
    },
    {
      "inputs": [],
      "name": "usdt",
      "outputs": [
        {
          "internalType": "contract IERC20",
          "name": "",
          "type": "address"
        }
      ],
      "stateMutability": "view",
      "type": "function"
    },
    {
      "inputs": [],
      "name": "withdrawHouseBalance",
      "outputs": [],
      "stateMutability": "nonpayable",
      "type": "function"
    }
  ],
  "bytecode": "0x60806040525f805460ff60a01b191681556001556002805460ff191690553480156027575f5ffd5b50604051611d3b380380611d3b8339810160408190526044916075565b5f8054336001600160a01b031991821617909155600680549091166001600160a01b039290921691909117905560a0565b5f602082840312156084575f5ffd5b81516001600160a01b03811681146099575f5ffd5b9392505050565b611c8e806100ad5f395ff3fe608060405234801561000f575f5ffd5b5060043610610187575f3560e01c8063749aa2d9116100d9578063b05b32ae11610093578063d70981541161006e578063d7098154146103e7578063dcb3b30e146103fa578063ef0a7c2d1461040d578063fa744dd314610418575f5ffd5b8063b05b32ae146103ac578063b95328ff146103b5578063c7bafdcb146103df575f5ffd5b8063749aa2d9146102d157806386998644146102d95780638a19c8bc146102ec5780638c65c81f146102f55780638da5cb5b1461038d578063ade5c0bc1461039f575f5ffd5b80632f48ab7d1161014457806367084eb31161011f57806367084eb314610287578063675f8aea146102905780636a0ec925146102995780636c6daa90146102a1575f5ffd5b80632f48ab7d146102495780633dc295fa146102745780635537be7f1461027f575f5ffd5b8063027471b01461018b57806302cab95a146101b357806302f6b274146101c8578063117692be146101e0578063120aa877146102025780631407a80a1461022f575b5f5ffd5b5f5461019e90600160a01b900460ff1681565b60405190151581526020015b60405180910390f35b6101c66101c136600461186b565b610438565b005b6101d2624c4b4081565b6040519081526020016101aa565b6101d26101ee366004611893565b5f9081526007602052604090206006015490565b61019e6102103660046118c5565b600a60209081525f928352604080842090915290825290205460ff1681565b610237600581565b60405160ff90911681526020016101aa565b60065461025c906001600160a01b031681565b6040516001600160a01b0390911681526020016101aa565b6101d2631dcd650081565b610237600a81565b6101d260035481565b6101d260055481565b6102376106b7565b6101d26102af3660046118ff565b600960209081525f938452604080852082529284528284209052825290205481565b6101c66106c9565b6101c66102e7366004611938565b610a29565b6101d260015481565b610348610303366004611893565b60076020525f90815260409020805460018201546002830154600384015460048501546005860154600690960154949560ff8086169661010090960481169592169188565b6040805198895260ff90971660208901529415159587019590955260608601929092526080850152151560a084015260c083019190915260e0820152610100016101aa565b5f5461025c906001600160a01b031681565b6002546102379060ff1681565b6101d260045481565b6101d26103c33660046119a9565b600860209081525f928352604080842090915290825290205481565b6101c6610fc7565b6101c66103f5366004611893565b6110df565b6101c66104083660046119ca565b611406565b6101d26305f5e10081565b61042b6104263660046118c5565b6116e4565b6040516101aa91906119f2565b5f54600160a01b900460ff16156104915760405162461bcd60e51b8152602060048201526018602482015277151a195c99481a5cc8185b881858dd1a5d99481c9bdd5b9960421b60448201526064015b60405180910390fd5b5f546001600160a01b031633146104ba5760405162461bcd60e51b815260040161048890611a34565b60028161ffff16101561051e5760405162461bcd60e51b815260206004820152602660248201527f526f756e6473206d757374206265206174206c656173742032206d696e75746560448201526573206c6f6e6760d01b6064820152608401610488565b5f805460ff60a01b1916600160a01b178155600180549161053e83611a89565b90915550506001545f9081526007602052604090204260029091015561056581603c611aa1565b6001545f908152600760205260409020600201546105879161ffff1690611ac5565b6001545f90815260076020526040902060030155600454631dcd6500118015906105bf575060025460ff166105ba6117ac565b60ff16105b1561065f57600180545f90815260076020908152604091829020600401805460ff1916841790559154905161ffff8416815290917f95efb7680f6425d411a1be505fc2c1a31615fb6a3a8a9a8f94fa5b43a841bb84910160405180910390a26001547fd51b28c7a51e619f531fdab483713462f7b35de8c8d4914525708b7d0520751760045460405161065491815260200190565b60405180910390a250565b600180545f90815260076020908152604091829020600401805460ff191690559154905161ffff8416815290917f95efb7680f6425d411a1be505fc2c1a31615fb6a3a8a9a8f94fa5b43a841bb849101610654565b50565b5f6106c4601f6001611aec565b905090565b5f54600160a01b900460ff1615156001146106f65760405162461bcd60e51b815260040161048890611b05565b6001545f9081526007602052604090206003015442116107625760405162461bcd60e51b815260206004820152602160248201527f54686520726f756e6427732074696d6520686173206e6f742066696e697368656044820152601960fa1b6064820152608401610488565b5f805460ff60a01b1916815560018054825260076020526040822001805461ff001916610100179055610793611801565b601f8111156107a4576107a4611ad8565b600180545f908152600760205260408082208301805460ff191660ff8616179055915481529081205491925060646107dd600a84611b3c565b6107e79190611b67565b90505f60646107f7600585611b3c565b6108019190611b67565b90505f8161080f8486611b7a565b6108199190611b7a565b6001545f90815260086020908152604080832060ff8a1684529091529020549091508015610919578360035f8282546108529190611ac5565b925050819055508260045f82825461086a9190611ac5565b925050819055508160055f8282546108829190611ac5565b9091555050600180545f9081526007602052604080822060050185905591548152206004015460ff16156108f9576004546001545f90815260076020526040812060050180549091906108d6908490611ac5565b9091555050600454600580545f906108ef908490611ac5565b90915550505f6004555b6001545f908152600760205260409020600581015460069091015561096f565b610924600283611b67565b61092e9085611ac5565b60035f82825461093e9190611ac5565b9091555061094f9050600283611b67565b6109599084611ac5565b60045f8282546109699190611ac5565b90915550505b631dcd65006004541015801561098c5750600254606460ff909116105b156109c65760028054600591905f906109a990849060ff16611aec565b92506101000a81548160ff021916908360ff1602179055506109df565b631dcd650060045410156109df576002805460ff191690555b600180545f8181526007602052604080822090930154925160ff909316927f3502d30ceab9ef8edf9d697a529b00029efc90f8f0e5876067615e91f30a655c9190a3505050505050565b5f54600160a01b900460ff161515600114610a565760405162461bcd60e51b815260040161048890611b05565b6001545f908152600760205260409020600301544210610ab85760405162461bcd60e51b815260206004820152601d60248201527f54686520726f756e6427732074696d65206861732066696e69736865640000006044820152606401610488565b5f610ac16106b7565b905060ff81168214610b2a5760405162461bcd60e51b815260206004820152602c60248201527f4d75737420696e636c75646520333220656e747269657320696e20746865206160448201526b6d6f756e747320617272617960a01b6064820152608401610488565b5f805b8260ff168160ff161015610d845784848260ff16818110610b5057610b50611b8d565b905060200201355f0315610d7c5784848260ff16818110610b7357610b73611b8d565b9050602002013582610b859190611ac5565b9150620f424085858360ff16818110610ba057610ba0611b8d565b90506020020135610bb19190611ba1565b15610bce5760405162461bcd60e51b815260040161048890611bb4565b620f424085858360ff16818110610be757610be7611b8d565b905060200201351015610c315760405162461bcd60e51b8152602060048201526012602482015271135a5b9a5b5d5b4818995d080c481554d11560721b6044820152606401610488565b6001545f90815260096020908152604080832060ff85168085529083528184203385529092529091205490624c4b409087908790818110610c7457610c74611b8d565b9050602002013582610c869190611ac5565b1115610cd95785858360ff16818110610ca157610ca1611b8d565b9050602002013581610cb39190611ac5565b60405163e587658960e01b81526004810191909152624c4b406024820152604401610488565b6001545f90815260086020908152604080832060ff8616808552925290912054906305f5e1009088908890818110610d1357610d13611b8d565b9050602002013582610d259190611ac5565b1115610d795786868460ff16818110610d4057610d40611b8d565b9050602002013581610d529190611ac5565b6040516343d390b360e01b815260048101919091526305f5e1006024820152604401610488565b50505b600101610b2d565b505f8111610dc55760405162461bcd60e51b815260206004820152600e60248201526d139bc818995d1cc81c1b1858d95960921b6044820152606401610488565b6001545f9081526007602052604081208054839290610de5908490611ac5565b909155505f90505b8260ff168160ff161015610f2b575f85858360ff16818110610e1157610e11611b8d565b905060200201351115610f235784848260ff16818110610e3357610e33611b8d565b6001545f90815260086020908152604080832060ff8816845282528220805493909102949094013593925090610e6a908490611ac5565b909155508590508460ff8316818110610e8557610e85611b8d565b6001545f90815260096020908152604080832060ff88168452825280832033845282528220805493909102949094013593925090610ec4908490611ac5565b909155505060015460ff8216337f8d3970b91d4f8dbb1a8368398f1ac8bdd7a7fb5682c8360b7396214f65d7e55f888884818110610f0457610f04611b8d565b90506020020135604051610f1a91815260200190565b60405180910390a45b600101610ded565b506006546040516323b872dd60e01b8152336004820152306024820152604481018390526001600160a01b03909116906323b872dd906064015b6020604051808303815f875af1158015610f81573d5f5f3e3d5ffd5b505050506040513d601f19601f82011682018060405250810190610fa59190611bf7565b610fc15760405162461bcd60e51b815260040161048890611c16565b50505050565b5f546001600160a01b03163314610ff05760405162461bcd60e51b815260040161048890611a34565b5f54600160a01b900460ff16156110445760405162461bcd60e51b8152602060048201526018602482015277151a195c99481a5cc8185b881858dd1a5d99481c9bdd5b9960421b6044820152606401610488565b600380545f91829055600654915460405163a9059cbb60e01b81526001600160a01b039182166004820152602481018390529192169063a9059cbb906044016020604051808303815f875af115801561109f573d5f5f3e3d5ffd5b505050506040513d601f19601f820116820180604052508101906110c39190611bf7565b6106b45760405162461bcd60e51b815260040161048890611c16565b5f818152600760205260409020600190810154610100900460ff161515146111495760405162461bcd60e51b815260206004820152601d60248201527f54686520726f756e64206973206e6f742066696e6973686564207965740000006044820152606401610488565b5f818152600a6020908152604080832033845290915290205460ff16156111aa5760405162461bcd60e51b8152602060048201526015602482015274141c9a5e9948185b1c9958591e4818db185a5b5959605a1b6044820152606401610488565b5f818152600760205260409020600601546112155760405162461bcd60e51b815260206004820152602560248201527f5468657265206973206e6f2072656d61696e696e6720636c61696d61626c65206044820152647072697a6560d81b6064820152608401610488565b5f818152600760209081526040808320600101546009835281842060ff90911680855290835281842033855290925290912054806112955760405162461bcd60e51b815260206004820152601760248201527f4e6f2077696e6e696e672062657420746f20636c61696d0000000000000000006044820152606401610488565b5f83815260086020908152604080832060ff86168452825280832054868452600790925282206005015490919082906112ce9085611b3c565b6112d89190611b67565b5f868152600a602090815260408083203384529091528120805460ff19166001179055600580549293508392909190611312908490611b7a565b90915550505f8581526007602052604081206006018054839290611337908490611b7a565b909155505060065460405163a9059cbb60e01b8152336004820152602481018390526001600160a01b039091169063a9059cbb906044016020604051808303815f875af115801561138a573d5f5f3e3d5ffd5b505050506040513d601f19601f820116820180604052508101906113ae9190611bf7565b6113ca5760405162461bcd60e51b815260040161048890611c16565b60405181815233907f95681e512bc0fe659e195e06c283eada494316f3d801213e48e7101af92bf7709060200160405180910390a25050505050565b5f54600160a01b900460ff1615156001146114335760405162461bcd60e51b815260040161048890611b05565b6001545f9081526007602052604090206003015442106114955760405162461bcd60e51b815260206004820152601d60248201527f54686520726f756e6427732074696d65206861732066696e69736865640000006044820152606401610488565b61149d6106b7565b60ff168260ff16106114e25760405162461bcd60e51b815260206004820152600e60248201526d125b9d985b1a5908185b9a5b585b60921b6044820152606401610488565b6114ef620f424082611ba1565b1561150c5760405162461bcd60e51b815260040161048890611bb4565b620f42408110156115545760405162461bcd60e51b8152602060048201526012602482015271135a5b9a5b5d5b4818995d080c481554d11560721b6044820152606401610488565b6001545f90815260096020908152604080832060ff861684528252808320338452909152902054624c4b406115898383611ac5565b111561159957610cb38282611ac5565b6001545f90815260086020908152604080832060ff871684529091529020546305f5e1006115c78483611ac5565b11156115d757610d528382611ac5565b6001545f90815260076020526040812080548592906115f7908490611ac5565b90915550506001545f90815260086020908152604080832060ff881684529091528120805485929061162a908490611ac5565b90915550506001545f90815260096020908152604080832060ff88168452825280832033845290915281208054859290611665908490611ac5565b909155505060015460405184815260ff86169033907f8d3970b91d4f8dbb1a8368398f1ac8bdd7a7fb5682c8360b7396214f65d7e55f9060200160405180910390a46006546040516323b872dd60e01b8152336004820152306024820152604481018590526001600160a01b03909116906323b872dd90606401610f65565b60605f6116ef6106b7565b90505f8160ff1667ffffffffffffffff81111561170e5761170e611c44565b604051908082528060200260200182016040528015611737578160200160208202803683370190505b5090505f5b8260ff168160ff1610156117a1575f86815260096020908152604080832060ff85168085529083528184206001600160a01b038a16855290925290912054835190918491811061178e5761178e611b8d565b602090810291909101015260010161173c565b509150505b92915050565b5f8042446117bb600143611b7a565b60408051602081019490945283019190915240606082015260800160408051601f19818403018152919052805160209091012090506117fb606482611ba1565b91505090565b5f804244611810600143611b7a565b604080516020810194909452830191909152406060820152608001604051602081830303815290604052805190602001205f1c905061184d6106b7565b61185a9060ff1682611ba1565b601f8111156117fb576117fb611ad8565b5f6020828403121561187b575f5ffd5b813561ffff8116811461188c575f5ffd5b9392505050565b5f602082840312156118a3575f5ffd5b5035919050565b80356001600160a01b03811681146118c0575f5ffd5b919050565b5f5f604083850312156118d6575f5ffd5b823591506118e6602084016118aa565b90509250929050565b803560ff811681146118c0575f5ffd5b5f5f5f60608486031215611911575f5ffd5b83359250611921602085016118ef565b915061192f604085016118aa565b90509250925092565b5f5f60208385031215611949575f5ffd5b823567ffffffffffffffff81111561195f575f5ffd5b8301601f8101851361196f575f5ffd5b803567ffffffffffffffff811115611985575f5ffd5b8560208260051b8401011115611999575f5ffd5b6020919091019590945092505050565b5f5f604083850312156119ba575f5ffd5b823591506118e6602084016118ef565b5f5f604083850312156119db575f5ffd5b6119e4836118ef565b946020939093013593505050565b602080825282518282018190525f918401906040840190835b81811015611a29578351835260209384019390920191600101611a0b565b509095945050505050565b60208082526021908201527f4f6e6c79206f776e65722063616e2063616c6c20746869732066756e6374696f6040820152603760f91b606082015260800190565b634e487b7160e01b5f52601160045260245ffd5b5f60018201611a9a57611a9a611a75565b5060010190565b61ffff8181168382160290811690818114611abe57611abe611a75565b5092915050565b808201808211156117a6576117a6611a75565b634e487b7160e01b5f52602160045260245ffd5b60ff81811683821601908111156117a6576117a6611a75565b6020808252601c908201527f5468657265206973206e6f7420616e2061637469766520726f756e6400000000604082015260600190565b80820281158282048414176117a6576117a6611a75565b634e487b7160e01b5f52601260045260245ffd5b5f82611b7557611b75611b53565b500490565b818103818111156117a6576117a6611a75565b634e487b7160e01b5f52603260045260245ffd5b5f82611baf57611baf611b53565b500690565b60208082526023908201527f416d6f756e74206d7573742062652061206d756c7469706c65206f662031205560408201526214d11560ea1b606082015260800190565b5f60208284031215611c07575f5ffd5b8151801515811461188c575f5ffd5b6020808252601490820152731554d11508151c985b9cd9995c8819985a5b195960621b604082015260600190565b634e487b7160e01b5f52604160045260245ffdfea264697066735822122028c6ff2a7faec09bf913d93763b651b397d32da856f35ff087ef9ff3ae15e51a64736f6c634300081c0033",
  "linkReferences": {},
  "deployedLinkReferences": {},
  "immutableReferences": {},
  "inputSourceName": "project/contracts/animalitos.sol",
  "buildInfoId": "solc-0_8_28-7a17223b4a174a01156a57cdc644f27f52a81fb5"
}