{
  "_format": "hh3-artifact-1",
  "contractName": "USDT",
  "sourceName": "contracts/usdt.sol",
  "abi": [
    {
      "inputs": [],
      "stateMutability": "nonpayable",
      "type": "constructor"
    },
    {
      "inputs": [
        {
          "internalType": "address",
          "name": "spender",
          "type": "address"
        },
        {
          "internalType": "uint256",
          "name": "allowance",
          "type": "uint256"
        },
        {
          "internalType": "uint256",
          "name": "needed",
          "type": "uint256"
        }
      ],
      "name": "ERC20InsufficientAllowance",
      "type": "error"
    },
    {
      "inputs": [
        {
          "internalType": "address",
          "name": "sender",
          "type": "address"
        },
        {
          "internalType": "uint256",
          "name": "balance",
          "type": "uint256"
        },
        {
          "internalType": "uint256",
          "name": "needed",
          "type": "uint256"
        }
      ],
      "name": "ERC20InsufficientBalance",
      "type": "error"
    },
    {
      "inputs": [
        {
          "internalType": "address",
          "name": "approver",
          "type": "address"
        }
      ],
      "name": "ERC20InvalidApprover",
      "type": "error"
    },
    {
      "inputs": [
        {
          "internalType": "address",
          "name": "receiver",
          "type": "address"
        }
      ],
      "name": "ERC20InvalidReceiver",
      "type": "error"
    },
    {
      "inputs": [
        {
          "internalType": "address",
          "name": "sender",
          "type": "address"
        }
      ],
      "name": "ERC20InvalidSender",
      "type": "error"
    },
    {
      "inputs": [
        {
          "internalType": "address",
          "name": "spender",
          "type": "address"
        }
      ],
      "name": "ERC20InvalidSpender",
      "type": "error"
    },
    {
      "anonymous": false,
      "inputs": [
        {
          "indexed": true,
          "internalType": "address",
          "name": "owner",
          "type": "address"
        },
        {
          "indexed": true,
          "internalType": "address",
          "name": "spender",
          "type": "address"
        },
        {
          "indexed": false,
          "internalType": "uint256",
          "name": "value",
          "type": "uint256"
        }
      ],
      "name": "Approval",
      "type": "event"
    },
    {
      "anonymous": false,
      "inputs": [
        {
          "indexed": true,
          "internalType": "address",
          "name": "from",
          "type": "address"
        },
        {
          "indexed": true,
          "internalType": "address",
          "name": "to",
          "type": "address"
        },
        {
          "indexed": false,
          "internalType": "uint256",
          "name": "value",
          "type": "uint256"
        }
      ],
      "name": "Transfer",
      "type": "event"
    },
    {
      "inputs": [
        {
          "internalType": "address",
          "name": "owner",
          "type": "address"
        },
        {
          "internalType": "address",
          "name": "spender",
          "type": "address"
        }
      ],
      "name": "allowance",
      "outputs": [
        {
          "internalType": "uint256",
          "name": "",
          "type": "uint256"
        }
      ],
      "stateMutability": "view",
      "type": "function"
    },
    {
      "inputs": [
        {
          "internalType": "address",
          "name": "spender",
          "type": "address"
        },
        {
          "internalType": "uint256",
          "name": "value",
          "type": "uint256"
        }
      ],
      "name": "approve",
      "outputs": [
        {
          "internalType": "bool",
          "name": "",
          "type": "bool"
        }
      ],
      "stateMutability": "nonpayable",
      "type": "function"
    },
    {
      "inputs": [
        {
          "internalType": "address",
          "name": "account",
          "type": "address"
        }
      ],
      "name": "balanceOf",
      "outputs": [
        {
          "internalType": "uint256",
          "name": "",
          "type": "uint256"
        }
      ],
      "stateMutability": "view",
      "type": "function"
    },
    {
      "inputs": [],
      "name": "burn",
      "outputs": [],
      "stateMutability": "nonpayable",
      "type": "function"
    },
    {
      "inputs": [],
      "name": "decimals",
      "outputs": [
        {
          "internalType": "uint8",
          "name": "",
          "type": "uint8"
        }
      ],
      "stateMutability": "pure",
      "type": "function"
    },
    {
      "inputs": [
        {
          "internalType": "address",
          "name": "to",
          "type": "address"
        },
        {
          "internalType": "uint256",
          "name": "amount",
          "type": "uint256"
        }
      ],
      "name": "mint",
      "outputs": [],
      "stateMutability": "nonpayable",
      "type": "function"
    },
    {
      "inputs": [],
      "name": "name",
      "outputs": [
        {
          "internalType": "string",
          "name": "",
          "type": "string"
        }
      ],
      "stateMutability": "view",
      "type": "function"
    },
    {
      "inputs": [],
      "name": "owner",
      "outputs": [
        {
          "internalType": "address",
          "name": "",
          "type": "address"
        }
      ],
      "stateMutability": "view",
      "type": "function"
    },
    {
      "inputs": [],
      "name": "symbol",
      "outputs": [
        {
          "internalType": "string",
          "name": "",
          "type": "string"
        }
      ],
      "stateMutability": "view",
      "type": "function"
    },
    {
      "inputs": [],
      "name": "totalSupply",
      "outputs": [
        {
          "internalType": "uint256",
          "name": "",
          "type": "uint256"
        }
      ],
      "stateMutability": "view",
      "type": "function"
    },
    {
      "inputs": [
        {
          "internalType": "address",
          "name": "to",
          "type": "address"
        },
        {
          "internalType": "uint256",
          "name": "value",
          "type": "uint256"
        }
      ],
      "name": "transfer",
      "outputs": [
        {
          "internalType": "bool",
          "name": "",
          "type": "bool"
        }
      ],
      "stateMutability": "nonpayable",
      "type": "function"
    },
    {
      "inputs": [
        {
          "internalType": "address",
          "name": "from",
          "type": "address"
        },
        {
          "internalType": "address",
          "name": "to",
          "type": "address"
        },
        {
          "internalType": "uint256",
          "name": "value",
          "type": "uint256"
        }
      ],
      "name": "transferFrom",
      "outputs": [
        {
          "internalType": "bool",
          "name": "",
          "type": "bool"
        }
      ],
      "stateMutability": "nonpayable",
      "type": "function"
    }
  ],
  "bytecode": "0x608060405234801561000f575f5ffd5b50604051806040016040528060098152602001682aa9a2102a37b5b2b760b91b815250604051806040016040528060048152602001631554d11560e21b815250816003908161005e91906102ac565b50600461006b82826102ac565b5050600580546001600160a01b031916339081179091556100ac915061008f600690565b61009a90600a61045f565b6100a790620f4240610474565b6100b1565b61049e565b6001600160a01b0382166100df5760405163ec442f0560e01b81525f60048201526024015b60405180910390fd5b6100ea5f83836100ee565b5050565b6001600160a01b038316610118578060025f82825461010d919061048b565b909155506101889050565b6001600160a01b0383165f908152602081905260409020548181101561016a5760405163391434e360e21b81526001600160a01b038516600482015260248101829052604481018390526064016100d6565b6001600160a01b0384165f9081526020819052604090209082900390555b6001600160a01b0382166101a4576002805482900390556101c2565b6001600160a01b0382165f9081526020819052604090208054820190555b816001600160a01b0316836001600160a01b03167fddf252ad1be2c89b69c2b068fc378daa952ba7f163c4a11628f55a4df523b3ef8360405161020791815260200190565b60405180910390a3505050565b634e487b7160e01b5f52604160045260245ffd5b600181811c9082168061023c57607f821691505b60208210810361025a57634e487b7160e01b5f52602260045260245ffd5b50919050565b601f8211156102a757805f5260205f20601f840160051c810160208510156102855750805b601f840160051c820191505b818110156102a4575f8155600101610291565b50505b505050565b81516001600160401b038111156102c5576102c5610214565b6102d9816102d38454610228565b84610260565b6020601f82116001811461030b575f83156102f45750848201515b5f19600385901b1c1916600184901b1784556102a4565b5f84815260208120601f198516915b8281101561033a578785015182556020948501946001909201910161031a565b508482101561035757868401515f19600387901b60f8161c191681555b50505050600190811b01905550565b634e487b7160e01b5f52601160045260245ffd5b6001815b60018411156103b55780850481111561039957610399610366565b60018416156103a757908102905b60019390931c92800261037e565b935093915050565b5f826103cb57506001610459565b816103d757505f610459565b81600181146103ed57600281146103f757610413565b6001915050610459565b60ff84111561040857610408610366565b50506001821b610459565b5060208310610133831016604e8410600b8410161715610436575081810a610459565b6104425f19848461037a565b805f190482111561045557610455610366565b0290505b92915050565b5f61046d60ff8416836103bd565b9392505050565b808202811582820484141761045957610459610366565b8082018082111561045957610459610366565b6109a4806104ab5f395ff3fe608060405234801561000f575f5ffd5b50600436106100b1575f3560e01c806344df8e701161006e57806344df8e701461013f57806370a08231146101475780638da5cb5b1461016f57806395d89b411461019a578063a9059cbb146101a2578063dd62ed3e146101b5575f5ffd5b806306fdde03146100b5578063095ea7b3146100d357806318160ddd146100f657806323b872dd14610108578063313ce5671461011b57806340c10f191461012a575b5f5ffd5b6100bd6101ed565b6040516100ca91906106c3565b60405180910390f35b6100e66100e1366004610713565b61027d565b60405190151581526020016100ca565b6002545b6040519081526020016100ca565b6100e661011636600461073b565b610296565b604051600681526020016100ca565b61013d610138366004610713565b6102b9565b005b61013d61030f565b6100fa610155366004610775565b6001600160a01b03165f9081526020819052604090205490565b600554610182906001600160a01b031681565b6040516001600160a01b0390911681526020016100ca565b6100bd61035c565b6100e66101b0366004610713565b61036b565b6100fa6101c3366004610795565b6001600160a01b039182165f90815260016020908152604080832093909416825291909152205490565b6060600380546101fc906107c6565b80601f0160208091040260200160405190810160405280929190818152602001828054610228906107c6565b80156102735780601f1061024a57610100808354040283529160200191610273565b820191905f5260205f20905b81548152906001019060200180831161025657829003601f168201915b5050505050905090565b5f3361028a818585610378565b60019150505b92915050565b5f336102a385828561038a565b6102ae858585610406565b506001949350505050565b6005546001600160a01b031633146102ec5760405162461bcd60e51b81526004016102e3906107fe565b60405180910390fd5b61030b826102fc6006600a610936565b6103069084610944565b610463565b5050565b6005546001600160a01b031633146103395760405162461bcd60e51b81526004016102e3906107fe565b61035a336103496006600a610936565b610355906103e8610944565b610497565b565b6060600480546101fc906107c6565b5f3361028a818585610406565b61038583838360016104cb565b505050565b6001600160a01b038381165f908152600160209081526040808320938616835292905220545f1981101561040057818110156103f257604051637dc7a0d960e11b81526001600160a01b038416600482015260248101829052604481018390526064016102e3565b61040084848484035f6104cb565b50505050565b6001600160a01b03831661042f57604051634b637e8f60e11b81525f60048201526024016102e3565b6001600160a01b0382166104585760405163ec442f0560e01b81525f60048201526024016102e3565b61038583838361059d565b6001600160a01b03821661048c5760405163ec442f0560e01b81525f60048201526024016102e3565b61030b5f838361059d565b6001600160a01b0382166104c057604051634b637e8f60e11b81525f60048201526024016102e3565b61030b825f8361059d565b6001600160a01b0384166104f45760405163e602df0560e01b81525f60048201526024016102e3565b6001600160a01b03831661051d57604051634a1406b160e11b81525f60048201526024016102e3565b6001600160a01b038085165f908152600160209081526040808320938716835292905220829055801561040057826001600160a01b0316846001600160a01b03167f8c5be1e5ebec7d5bd14f71427d1e84f3dd0314c0f7b2291e5b200ac8c7c3b9258460405161058f91815260200190565b60405180910390a350505050565b6001600160a01b0383166105c7578060025f8282546105bc919061095b565b909155506106379050565b6001600160a01b0383165f90815260208190526040902054818110156106195760405163391434e360e21b81526001600160a01b038516600482015260248101829052604481018390526064016102e3565b6001600160a01b0384165f9081526020819052604090209082900390555b6001600160a01b03821661065357600280548290039055610671565b6001600160a01b0382165f9081526020819052604090208054820190555b816001600160a01b0316836001600160a01b03167fddf252ad1be2c89b69c2b068fc378daa952ba7f163c4a11628f55a4df523b3ef836040516106b691815260200190565b60405180910390a3505050565b602081525f82518060208401528060208501604085015e5f604082850101526040601f19601f83011684010191505092915050565b80356001600160a01b038116811461070e575f5ffd5b919050565b5f5f60408385031215610724575f5ffd5b61072d836106f8565b946020939093013593505050565b5f5f5f6060848603121561074d575f5ffd5b610756846106f8565b9250610764602085016106f8565b929592945050506040919091013590565b5f60208284031215610785575f5ffd5b61078e826106f8565b9392505050565b5f5f604083850312156107a6575f5ffd5b6107af836106f8565b91506107bd602084016106f8565b90509250929050565b600181811c908216806107da57607f821691505b6020821081036107f857634e487b7160e01b5f52602260045260245ffd5b50919050565b60208082526021908201527f4f6e6c79206f776e65722063616e2063616c6c20746869732066756e6374696f6040820152603760f91b606082015260800190565b634e487b7160e01b5f52601160045260245ffd5b6001815b600184111561088e578085048111156108725761087261083f565b600184161561088057908102905b60019390931c928002610857565b935093915050565b5f826108a457506001610290565b816108b057505f610290565b81600181146108c657600281146108d0576108ec565b6001915050610290565b60ff8411156108e1576108e161083f565b50506001821b610290565b5060208310610133831016604e8410600b841016171561090f575081810a610290565b61091b5f198484610853565b805f190482111561092e5761092e61083f565b029392505050565b5f61078e60ff841683610896565b80820281158282048414176102905761029061083f565b808201808211156102905761029061083f56fea26469706673582212204259c3d746cc62197f30aa37ceb4813a2c6a6637ad6699cdd12fcbd980ab86ac64736f6c634300081c0033",
  "linkReferences": {},
  "deployedLinkReferences": {},
  "immutableReferences": {},
  "inputSourceName": "project/contracts/usdt.sol",
  "buildInfoId": "solc-0_8_28-11a69177e4121fb485a8f7b2bcca4ba4e3e00cdd"
}