{
  "_format": "hh3-artifact-1",
  "contractName": "USDT",
  "sourceName": "contracts/usdt.sol",
  "abi": [
    {
      "inputs": [],
      "stateMutability": "nonpayable",
      "type": "constructor"
    },
    {
      "inputs": [
        {
          "internalType": "address",
          "name": "spender",
          "type": "address"
        },
        {
          "internalType": "uint256",
          "name": "allowance",
          "type": "uint256"
        },
        {
          "internalType": "uint256",
          "name": "needed",
          "type": "uint256"
        }
      ],
      "name": "ERC20InsufficientAllowance",
      "type": "error"
    },
    {
      "inputs": [
        {
          "internalType": "address",
          "name": "sender",
          "type": "address"
        },
        {
          "internalType": "uint256",
          "name": "balance",
          "type": "uint256"
        },
        {
          "internalType": "uint256",
          "name": "needed",
          "type": "uint256"
        }
      ],
      "name": "ERC20InsufficientBalance",
      "type": "error"
    },
    {
      "inputs": [
        {
          "internalType": "address",
          "name": "approver",
          "type": "address"
        }
      ],
      "name": "ERC20InvalidApprover",
      "type": "error"
    },
    {
      "inputs": [
        {
          "internalType": "address",
          "name": "receiver",
          "type": "address"
        }
      ],
      "name": "ERC20InvalidReceiver",
      "type": "error"
    },
    {
      "inputs": [
        {
          "internalType": "address",
          "name": "sender",
          "type": "address"
        }
      ],
      "name": "ERC20InvalidSender",
      "type": "error"
    },
    {
      "inputs": [
        {
          "internalType": "address",
          "name": "spender",
          "type": "address"
        }
      ],
      "name": "ERC20InvalidSpender",
      "type": "error"
    },
    {
      "anonymous": false,
      "inputs": [
        {
          "indexed": true,
          "internalType": "address",
          "name": "owner",
          "type": "address"
        },
        {
          "indexed": true,
          "internalType": "address",
          "name": "spender",
          "type": "address"
        },
        {
          "indexed": false,
          "internalType": "uint256",
          "name": "value",
          "type": "uint256"
        }
      ],
      "name": "Approval",
      "type": "event"
    },
    {
      "anonymous": false,
      "inputs": [
        {
          "indexed": true,
          "internalType": "address",
          "name": "from",
          "type": "address"
        },
        {
          "indexed": true,
          "internalType": "address",
          "name": "to",
          "type": "address"
        },
        {
          "indexed": false,
          "internalType": "uint256",
          "name": "value",
          "type": "uint256"
        }
      ],
      "name": "Transfer",
      "type": "event"
    },
    {
      "inputs": [
        {
          "internalType": "address",
          "name": "owner",
          "type": "address"
        },
        {
          "internalType": "address",
          "name": "spender",
          "type": "address"
        }
      ],
      "name": "allowance",
      "outputs": [
        {
          "internalType": "uint256",
          "name": "",
          "type": "uint256"
        }
      ],
      "stateMutability": "view",
      "type": "function"
    },
    {
      "inputs": [
        {
          "internalType": "address",
          "name": "spender",
          "type": "address"
        },
        {
          "internalType": "uint256",
          "name": "value",
          "type": "uint256"
        }
      ],
      "name": "approve",
      "outputs": [
        {
          "internalType": "bool",
          "name": "",
          "type": "bool"
        }
      ],
      "stateMutability": "nonpayable",
      "type": "function"
    },
    {
      "inputs": [
        {
          "internalType": "address",
          "name": "account",
          "type": "address"
        }
      ],
      "name": "balanceOf",
      "outputs": [
        {
          "internalType": "uint256",
          "name": "",
          "type": "uint256"
        }
      ],
      "stateMutability": "view",
      "type": "function"
    },
    {
      "inputs": [],
      "name": "burn",
      "outputs": [],
      "stateMutability": "nonpayable",
      "type": "function"
    },
    {
      "inputs": [],
      "name": "decimals",
      "outputs": [
        {
          "internalType": "uint8",
          "name": "",
          "type": "uint8"
        }
      ],
      "stateMutability": "pure",
      "type": "function"
    },
    {
      "inputs": [],
      "name": "mint",
      "outputs": [],
      "stateMutability": "nonpayable",
      "type": "function"
    },
    {
      "inputs": [],
      "name": "name",
      "outputs": [
        {
          "internalType": "string",
          "name": "",
          "type": "string"
        }
      ],
      "stateMutability": "view",
      "type": "function"
    },
    {
      "inputs": [],
      "name": "owner",
      "outputs": [
        {
          "internalType": "address",
          "name": "",
          "type": "address"
        }
      ],
      "stateMutability": "view",
      "type": "function"
    },
    {
      "inputs": [],
      "name": "symbol",
      "outputs": [
        {
          "internalType": "string",
          "name": "",
          "type": "string"
        }
      ],
      "stateMutability": "view",
      "type": "function"
    },
    {
      "inputs": [],
      "name": "totalSupply",
      "outputs": [
        {
          "internalType": "uint256",
          "name": "",
          "type": "uint256"
        }
      ],
      "stateMutability": "view",
      "type": "function"
    },
    {
      "inputs": [
        {
          "internalType": "address",
          "name": "to",
          "type": "address"
        },
        {
          "internalType": "uint256",
          "name": "value",
          "type": "uint256"
        }
      ],
      "name": "transfer",
      "outputs": [
        {
          "internalType": "bool",
          "name": "",
          "type": "bool"
        }
      ],
      "stateMutability": "nonpayable",
      "type": "function"
    },
    {
      "inputs": [
        {
          "internalType": "address",
          "name": "from",
          "type": "address"
        },
        {
          "internalType": "address",
          "name": "to",
          "type": "address"
        },
        {
          "internalType": "uint256",
          "name": "value",
          "type": "uint256"
        }
      ],
      "name": "transferFrom",
      "outputs": [
        {
          "internalType": "bool",
          "name": "",
          "type": "bool"
        }
      ],
      "stateMutability": "nonpayable",
      "type": "function"
    }
  ],
  "bytecode": "0x608060405234801561000f575f5ffd5b506040518060400160405280600981526020017f55534420546f6b656e00000000000000000000000000000000000000000000008152506040518060400160405280600481526020017f5553445400000000000000000000000000000000000000000000000000000000815250816003908161008b91906105fd565b50806004908161009b91906105fd565b5050503360055f6101000a81548173ffffffffffffffffffffffffffffffffffffffff021916908373ffffffffffffffffffffffffffffffffffffffff160217905550610115336100f061011a60201b60201c565b600a6100fc9190610834565b620f424061010a919061087e565b61012260201b60201c565b6109a7565b5f6006905090565b5f73ffffffffffffffffffffffffffffffffffffffff168273ffffffffffffffffffffffffffffffffffffffff1603610192575f6040517fec442f0500000000000000000000000000000000000000000000000000000000815260040161018991906108fe565b60405180910390fd5b6101a35f83836101a760201b60201c565b5050565b5f73ffffffffffffffffffffffffffffffffffffffff168373ffffffffffffffffffffffffffffffffffffffff16036101f7578060025f8282546101eb9190610917565b925050819055506102c5565b5f5f5f8573ffffffffffffffffffffffffffffffffffffffff1673ffffffffffffffffffffffffffffffffffffffff1681526020019081526020015f2054905081811015610280578381836040517fe450d38c00000000000000000000000000000000000000000000000000000000815260040161027793929190610959565b60405180910390fd5b8181035f5f8673ffffffffffffffffffffffffffffffffffffffff1673ffffffffffffffffffffffffffffffffffffffff1681526020019081526020015f2081905550505b5f73ffffffffffffffffffffffffffffffffffffffff168273ffffffffffffffffffffffffffffffffffffffff160361030c578060025f8282540392505081905550610356565b805f5f8473ffffffffffffffffffffffffffffffffffffffff1673ffffffffffffffffffffffffffffffffffffffff1681526020019081526020015f205f82825401925050819055505b8173ffffffffffffffffffffffffffffffffffffffff168373ffffffffffffffffffffffffffffffffffffffff167fddf252ad1be2c89b69c2b068fc378daa952ba7f163c4a11628f55a4df523b3ef836040516103b3919061098e565b60405180910390a3505050565b5f81519050919050565b7f4e487b71000000000000000000000000000000000000000000000000000000005f52604160045260245ffd5b7f4e487b71000000000000000000000000000000000000000000000000000000005f52602260045260245ffd5b5f600282049050600182168061043b57607f821691505b60208210810361044e5761044d6103f7565b5b50919050565b5f819050815f5260205f209050919050565b5f6020601f8301049050919050565b5f82821b905092915050565b5f600883026104b07fffffffffffffffffffffffffffffffffffffffffffffffffffffffffffffffff82610475565b6104ba8683610475565b95508019841693508086168417925050509392505050565b5f819050919050565b5f819050919050565b5f6104fe6104f96104f4846104d2565b6104db565b6104d2565b9050919050565b5f819050919050565b610517836104e4565b61052b61052382610505565b848454610481565b825550505050565b5f5f905090565b610542610533565b61054d81848461050e565b505050565b5b81811015610570576105655f8261053a565b600181019050610553565b5050565b601f8211156105b55761058681610454565b61058f84610466565b8101602085101561059e578190505b6105b26105aa85610466565b830182610552565b50505b505050565b5f82821c905092915050565b5f6105d55f19846008026105ba565b1980831691505092915050565b5f6105ed83836105c6565b9150826002028217905092915050565b610606826103c0565b67ffffffffffffffff81111561061f5761061e6103ca565b5b6106298254610424565b610634828285610574565b5f60209050601f831160018114610665575f8415610653578287015190505b61065d85826105e2565b8655506106c4565b601f19841661067386610454565b5f5b8281101561069a57848901518255600182019150602085019450602081019050610675565b868310156106b757848901516106b3601f8916826105c6565b8355505b6001600288020188555050505b505050505050565b7f4e487b71000000000000000000000000000000000000000000000000000000005f52601160045260245ffd5b5f8160011c9050919050565b5f5f8291508390505b600185111561074e5780860481111561072a576107296106cc565b5b60018516156107395780820291505b8081029050610747856106f9565b945061070e565b94509492505050565b5f826107665760019050610821565b81610773575f9050610821565b81600181146107895760028114610793576107c2565b6001915050610821565b60ff8411156107a5576107a46106cc565b5b8360020a9150848211156107bc576107bb6106cc565b5b50610821565b5060208310610133831016604e8410600b84101617156107f75782820a9050838111156107f2576107f16106cc565b5b610821565b6108048484846001610705565b9250905081840481111561081b5761081a6106cc565b5b81810290505b9392505050565b5f60ff82169050919050565b5f61083e826104d2565b915061084983610828565b92506108767fffffffffffffffffffffffffffffffffffffffffffffffffffffffffffffffff8484610757565b905092915050565b5f610888826104d2565b9150610893836104d2565b92508282026108a1816104d2565b915082820484148315176108b8576108b76106cc565b5b5092915050565b5f73ffffffffffffffffffffffffffffffffffffffff82169050919050565b5f6108e8826108bf565b9050919050565b6108f8816108de565b82525050565b5f6020820190506109115f8301846108ef565b92915050565b5f610921826104d2565b915061092c836104d2565b9250828201905080821115610944576109436106cc565b5b92915050565b610953816104d2565b82525050565b5f60608201905061096c5f8301866108ef565b610979602083018561094a565b610986604083018461094a565b949350505050565b5f6020820190506109a15f83018461094a565b92915050565b611316806109b45f395ff3fe608060405234801561000f575f5ffd5b50600436106100b2575f3560e01c806344df8e701161006f57806344df8e701461017a57806370a08231146101845780638da5cb5b146101b457806395d89b41146101d2578063a9059cbb146101f0578063dd62ed3e14610220576100b2565b806306fdde03146100b6578063095ea7b3146100d45780631249c58b1461010457806318160ddd1461010e57806323b872dd1461012c578063313ce5671461015c575b5f5ffd5b6100be610250565b6040516100cb9190610d47565b60405180910390f35b6100ee60048036038101906100e99190610df8565b6102e0565b6040516100fb9190610e50565b60405180910390f35b61010c610302565b005b6101166103bd565b6040516101239190610e78565b60405180910390f35b61014660048036038101906101419190610e91565b6103c6565b6040516101539190610e50565b60405180910390f35b6101646103f4565b6040516101719190610efc565b60405180910390f35b6101826103fc565b005b61019e60048036038101906101999190610f15565b6104b7565b6040516101ab9190610e78565b60405180910390f35b6101bc6104fc565b6040516101c99190610f4f565b60405180910390f35b6101da610521565b6040516101e79190610d47565b60405180910390f35b61020a60048036038101906102059190610df8565b6105b1565b6040516102179190610e50565b60405180910390f35b61023a60048036038101906102359190610f68565b6105d3565b6040516102479190610e78565b60405180910390f35b60606003805461025f90610fd3565b80601f016020809104026020016040519081016040528092919081815260200182805461028b90610fd3565b80156102d65780601f106102ad576101008083540402835291602001916102d6565b820191905f5260205f20905b8154815290600101906020018083116102b957829003601f168201915b5050505050905090565b5f5f6102ea610655565b90506102f781858561065c565b600191505092915050565b60055f9054906101000a900473ffffffffffffffffffffffffffffffffffffffff1673ffffffffffffffffffffffffffffffffffffffff163373ffffffffffffffffffffffffffffffffffffffff1614610391576040517f08c379a000000000000000000000000000000000000000000000000000000000815260040161038890611073565b60405180910390fd5b6103bb3361039d6103f4565b600a6103a991906111ed565b6103e86103b69190611237565b61066e565b565b5f600254905090565b5f5f6103d0610655565b90506103dd8582856106ed565b6103e8858585610780565b60019150509392505050565b5f6006905090565b60055f9054906101000a900473ffffffffffffffffffffffffffffffffffffffff1673ffffffffffffffffffffffffffffffffffffffff163373ffffffffffffffffffffffffffffffffffffffff161461048b576040517f08c379a000000000000000000000000000000000000000000000000000000000815260040161048290611073565b60405180910390fd5b6104b5336104976103f4565b600a6104a391906111ed565b6103e86104b09190611237565b610870565b565b5f5f5f8373ffffffffffffffffffffffffffffffffffffffff1673ffffffffffffffffffffffffffffffffffffffff1681526020019081526020015f20549050919050565b60055f9054906101000a900473ffffffffffffffffffffffffffffffffffffffff1681565b60606004805461053090610fd3565b80601f016020809104026020016040519081016040528092919081815260200182805461055c90610fd3565b80156105a75780601f1061057e576101008083540402835291602001916105a7565b820191905f5260205f20905b81548152906001019060200180831161058a57829003601f168201915b5050505050905090565b5f5f6105bb610655565b90506105c8818585610780565b600191505092915050565b5f60015f8473ffffffffffffffffffffffffffffffffffffffff1673ffffffffffffffffffffffffffffffffffffffff1681526020019081526020015f205f8373ffffffffffffffffffffffffffffffffffffffff1673ffffffffffffffffffffffffffffffffffffffff1681526020019081526020015f2054905092915050565b5f33905090565b61066983838360016108ef565b505050565b5f73ffffffffffffffffffffffffffffffffffffffff168273ffffffffffffffffffffffffffffffffffffffff16036106de575f6040517fec442f050000000000000000000000000000000000000000000000000000000081526004016106d59190610f4f565b60405180910390fd5b6106e95f8383610abe565b5050565b5f6106f884846105d3565b90507fffffffffffffffffffffffffffffffffffffffffffffffffffffffffffffffff81101561077a578181101561076b578281836040517ffb8f41b200000000000000000000000000000000000000000000000000000000815260040161076293929190611278565b60405180910390fd5b61077984848484035f6108ef565b5b50505050565b5f73ffffffffffffffffffffffffffffffffffffffff168373ffffffffffffffffffffffffffffffffffffffff16036107f0575f6040517f96c6fd1e0000000000000000000000000000000000000000000000000000000081526004016107e79190610f4f565b60405180910390fd5b5f73ffffffffffffffffffffffffffffffffffffffff168273ffffffffffffffffffffffffffffffffffffffff1603610860575f6040517fec442f050000000000000000000000000000000000000000000000000000000081526004016108579190610f4f565b60405180910390fd5b61086b838383610abe565b505050565b5f73ffffffffffffffffffffffffffffffffffffffff168273ffffffffffffffffffffffffffffffffffffffff16036108e0575f6040517f96c6fd1e0000000000000000000000000000000000000000000000000000000081526004016108d79190610f4f565b60405180910390fd5b6108eb825f83610abe565b5050565b5f73ffffffffffffffffffffffffffffffffffffffff168473ffffffffffffffffffffffffffffffffffffffff160361095f575f6040517fe602df050000000000000000000000000000000000000000000000000000000081526004016109569190610f4f565b60405180910390fd5b5f73ffffffffffffffffffffffffffffffffffffffff168373ffffffffffffffffffffffffffffffffffffffff16036109cf575f6040517f94280d620000000000000000000000000000000000000000000000000000000081526004016109c69190610f4f565b60405180910390fd5b8160015f8673ffffffffffffffffffffffffffffffffffffffff1673ffffffffffffffffffffffffffffffffffffffff1681526020019081526020015f205f8573ffffffffffffffffffffffffffffffffffffffff1673ffffffffffffffffffffffffffffffffffffffff1681526020019081526020015f20819055508015610ab8578273ffffffffffffffffffffffffffffffffffffffff168473ffffffffffffffffffffffffffffffffffffffff167f8c5be1e5ebec7d5bd14f71427d1e84f3dd0314c0f7b2291e5b200ac8c7c3b92584604051610aaf9190610e78565b60405180910390a35b50505050565b5f73ffffffffffffffffffffffffffffffffffffffff168373ffffffffffffffffffffffffffffffffffffffff1603610b0e578060025f828254610b0291906112ad565b92505081905550610bdc565b5f5f5f8573ffffffffffffffffffffffffffffffffffffffff1673ffffffffffffffffffffffffffffffffffffffff1681526020019081526020015f2054905081811015610b97578381836040517fe450d38c000000000000000000000000000000000000000000000000000000008152600401610b8e93929190611278565b60405180910390fd5b8181035f5f8673ffffffffffffffffffffffffffffffffffffffff1673ffffffffffffffffffffffffffffffffffffffff1681526020019081526020015f2081905550505b5f73ffffffffffffffffffffffffffffffffffffffff168273ffffffffffffffffffffffffffffffffffffffff1603610c23578060025f8282540392505081905550610c6d565b805f5f8473ffffffffffffffffffffffffffffffffffffffff1673ffffffffffffffffffffffffffffffffffffffff1681526020019081526020015f205f82825401925050819055505b8173ffffffffffffffffffffffffffffffffffffffff168373ffffffffffffffffffffffffffffffffffffffff167fddf252ad1be2c89b69c2b068fc378daa952ba7f163c4a11628f55a4df523b3ef83604051610cca9190610e78565b60405180910390a3505050565b5f81519050919050565b5f82825260208201905092915050565b8281835e5f83830152505050565b5f601f19601f8301169050919050565b5f610d1982610cd7565b610d238185610ce1565b9350610d33818560208601610cf1565b610d3c81610cff565b840191505092915050565b5f6020820190508181035f830152610d5f8184610d0f565b905092915050565b5f5ffd5b5f73ffffffffffffffffffffffffffffffffffffffff82169050919050565b5f610d9482610d6b565b9050919050565b610da481610d8a565b8114610dae575f5ffd5b50565b5f81359050610dbf81610d9b565b92915050565b5f819050919050565b610dd781610dc5565b8114610de1575f5ffd5b50565b5f81359050610df281610dce565b92915050565b5f5f60408385031215610e0e57610e0d610d67565b5b5f610e1b85828601610db1565b9250506020610e2c85828601610de4565b9150509250929050565b5f8115159050919050565b610e4a81610e36565b82525050565b5f602082019050610e635f830184610e41565b92915050565b610e7281610dc5565b82525050565b5f602082019050610e8b5f830184610e69565b92915050565b5f5f5f60608486031215610ea857610ea7610d67565b5b5f610eb586828701610db1565b9350506020610ec686828701610db1565b9250506040610ed786828701610de4565b9150509250925092565b5f60ff82169050919050565b610ef681610ee1565b82525050565b5f602082019050610f0f5f830184610eed565b92915050565b5f60208284031215610f2a57610f29610d67565b5b5f610f3784828501610db1565b91505092915050565b610f4981610d8a565b82525050565b5f602082019050610f625f830184610f40565b92915050565b5f5f60408385031215610f7e57610f7d610d67565b5b5f610f8b85828601610db1565b9250506020610f9c85828601610db1565b9150509250929050565b7f4e487b71000000000000000000000000000000000000000000000000000000005f52602260045260245ffd5b5f6002820490506001821680610fea57607f821691505b602082108103610ffd57610ffc610fa6565b5b50919050565b7f4f6e6c79206f776e65722063616e2063616c6c20746869732066756e6374696f5f8201527f6e00000000000000000000000000000000000000000000000000000000000000602082015250565b5f61105d602183610ce1565b915061106882611003565b604082019050919050565b5f6020820190508181035f83015261108a81611051565b9050919050565b7f4e487b71000000000000000000000000000000000000000000000000000000005f52601160045260245ffd5b5f8160011c9050919050565b5f5f8291508390505b6001851115611113578086048111156110ef576110ee611091565b5b60018516156110fe5780820291505b808102905061110c856110be565b94506110d3565b94509492505050565b5f8261112b57600190506111e6565b81611138575f90506111e6565b816001811461114e576002811461115857611187565b60019150506111e6565b60ff84111561116a57611169611091565b5b8360020a91508482111561118157611180611091565b5b506111e6565b5060208310610133831016604e8410600b84101617156111bc5782820a9050838111156111b7576111b6611091565b5b6111e6565b6111c984848460016110ca565b925090508184048111156111e0576111df611091565b5b81810290505b9392505050565b5f6111f782610dc5565b915061120283610ee1565b925061122f7fffffffffffffffffffffffffffffffffffffffffffffffffffffffffffffffff848461111c565b905092915050565b5f61124182610dc5565b915061124c83610dc5565b925082820261125a81610dc5565b9150828204841483151761127157611270611091565b5b5092915050565b5f60608201905061128b5f830186610f40565b6112986020830185610e69565b6112a56040830184610e69565b949350505050565b5f6112b782610dc5565b91506112c283610dc5565b92508282019050808211156112da576112d9611091565b5b9291505056fea26469706673582212207a3ad94105e75209bd195fbd87a5ab55b4863bb215241a237e518fadb6a11a2f64736f6c634300081c0033",
  "linkReferences": {},
  "deployedLinkReferences": {},
  "immutableReferences": {},
  "inputSourceName": "project/contracts/usdt.sol",
  "buildInfoId": "solc-0_8_28-e7212691ecbac20fd1a0ce77a9ef440582299b1c"
}